{
	"data": {
		"bytecode": {
			"linkReferences": {},
			"object": "608060405234801561000f575f80fd5b50620400006103805260126103a0527f19ddbcaf3a8d46c15c0176fbb5b95e4dc57088ff13f4d1bd84c6bfa57dcdc0e06103c0527f30644259cd94e7dd5045d7a27013b7fcd21c9e3b7fa75222e7bda49b729b04016103e0527f0f3165a09248411c8c3530c4c900e005dae86ee220d74298426b4c1fee327ec2610400527f1d65f6c02d03fc4c95bc1d05f37c8712f59b5985bab9ea339adefb7bed6f3eed610420527f170f5fb8eaccc50db44b44627a681051f51aac45ea66198f8b3f8aa779330d26610440527f0cd90b4bfbd67210ed374ca5ba08477d5dc8ca24077312d3a24edfe9a3aa4f4c610460527f1419261c1ca8298fe3c3280574a58c8b94cd369264c3389ef8f49dd612bcfe47610480527f196b7bb4a6bfc4284225d3599513c1c4d3babd25544c21262b0e7037f24bf2d16104a0527f20ffcb9505d73efa469d5af9b3801d004eacf6fc426767d3eae4f903069718bd6104c0527f17714b06872b0b2c57bb2c441ef4a9a97137f92733a91bb056f8ec2673ec57276104e0527f110771250054c7ab09d662f021a30219ec9146fad29b462efa5cd7c6e5221842610500527f0725b141a2512d3be42adcee05af426002dbd4010ac933fafd666da7278741c0610520527f26b94f2aeff2ceed5272d4c65f424ef40aa51a500afff19c386b82c21de73f6b610540527f196ed403a9159a59a52788e714f9368792247f41771c69062b5c32219af801a8610560527f2135f7f7f3705d03f5f2f5acbbcb84f08a240d9be14ab3418a177176ee1c6d6b610580527f11a0f17694cd3eed22126293757afbd53f1c87fb2dfbec82e149ad205e8a10996105a0527f11bd2f48d5b1b9e17143eba8636e64c072a516173f81bb0978777719b14faaf26105c0527f15e6b5ab62b17e48f8ed2a21cef1f1029273ee4c4af2768acc234aaf236714a76105e0527f016559f6a0d5da49bd1e41b146bf4355125bef16da5f6523bedb2a10d295d858610600527f3052f90a858b1a65a54bce7ec7a6714b0815087726c9ece9020c69f3e9937aeb610620527f2e19c568ebceb7d13dc932d3a7978301836f0bb986cc530531e90811dd0d63e0610640527f1fe278f7ff6469471d971c9adeabda25191b1b2d52a8a0b6e79a98af2ce5fcfd610660527f279b738e312ea2934ad266b354d66108b70ddc3330e1de1381384b550a9e327c610680527f2cef399261e043cdbd9d58181d7583513363721ee5257f55a2e07a2e967f3f316106a0527f09dd5d64e9cd291f7dbf01e57d11603263785ca3ce61f7de1f3fbc55d76561d46106c0527f1d643feaa4f96de3987b9b9242a89f28f21d5b3a59c35beda9558c60763d8bda6106e0527f15a5bdc47602f77eb45c35176915bd7de6523f70edcd38d088e6603fb8aad0fe610700527f2c3bfd38c18c375ddc8f572a794ee083050df3b13c80395e75b035e8b1a7ab22610720527f23525c815bc26ba979ca4de240b004f09316fc16a6167fb7bbaf07b4902cd80a610740527f24b15441a71e19f755d3605ef9759751000bb97bc6eb198eb6bdcf1b2924e0dc610760527f2ea2ff6b2f333a418bfeb964e319c449df4a91ea748fcb2009819483cf04b09e610780527f022930009c260c00c7824a575f3adc7a6ad4199ce158653edcfe6c7175f289036107a0527f175be336cda5efe297772b8c31f33a4a214f04e8d507063d0402e8888bdb112f6107c0527f23521efb62025f76a3671f00237859c78db2050f26dd94af5dd76812f960e6996107e0527f07d21b6624c2c6182194bbc895da5d1c5fe9416863023c82c1711590d17fd51b610800527f04bf03c7aca49821f11d4c282f1e35254c50b975adc28a7001f0d18504f69977610820527f061fc351158b58e44669c1f3c52ecd85cd14622e87e7495c36da187f204051ee610840527f29e6c5c2473b14a21ef24f9d72189a8dd1c5ed5fd7e1965ee612c880c6510e56610860527e4bd112c002a193ac7ab371cee47a7b49249bea67d6fb2f68482a8b6be02b92610880527f0f2f3306a937a69fa823e730fa7497c306b851662dd6d3bcf2e86638d2564ac46108a0527f0a6cece5423503abccfa8ad2bef48f2f90728c76c6e4a1bacceeef2ba71cec346108c0527eefe91e937cc51815ff2a6d6fc5d48d3ab2bb8ea83c966a8e94ca64f56b4c9b6108e0527f1c192ee411bd8cbecb97fedf77f5de8b6b5f384ea174e72689b91cc7daf503a9610900527f1e76c79b60e82ace19c27d7ef92af22d765bfe346357acb21ba264f862e50d89610920527f159b48d9fe64ed8dffc10450e8842de80c7c5797c64769a385266a0d8db1d1ec610940527f1a0dd723223c74ed322c0e033943f79b28d511f31c8c446fc9a63018327471d3610960527f0862d9ee04f4ee550a66933dcaed272b46c777647ffc9a7dfef6c75e17669d7a610980527f22eca3388311dce341ef65a81a6bbc1bf306ff202a076517035bc6412dc6eb246109a0525f6109c08190526109e0527f260e01b251f6f1c7e7ff4e580791dee8ea51d87a358e038b4efe30fac09383c1610a00527f0118c4d5b837bcc2bc89b5b398b5974e9f5944073b32078b7e231fec938883b0610a20527f04fc6369f7110fe3d25156c1bb9a72859cf2a04641f99ba4ee413c80da6a5fe4610a40527f22febda3c0c0632a56475b4214e5615e11e6dd3f96e6cea2854a87d4dacc5e55610a60527f036853f083780e87f8d7c71d111119c57dbe118c22d5ad707a82317466c5174c613300527f30644e72e131a029b85045b68181585d97816a916871ca8d3c208c16d87cfd47600161040051610420518382830984600386838609088583840914841693505050506104405161046051838283098460038683860908858384091484169350505050610480516104a0518382830984600386838609088583840914841693505050506104c0516104e05183828309846003868386090885838409148416935050815f5280602052505061050051610520518382830984600386838609088583840914841693505050506105405161056051838283098460038683860908858384091484169350505050610580516105a0518382830984600386838609088583840914841693505050506105c0516105e05183828309846003868386090885838409148416935050505061060051610620518382830984600386838609088583840914841693505050506106405161066051838283098460038683860908858384091484169350505050610680516106a0518382830984600386838609088583840914841693505050506106c0516106e05183828309846003868386090885838409148416935050505061070051610720518382830984600386838609088583840914841693505050506107405161076051838283098460038683860908858384091484169350505050610780516107a0518382830984600386838609088583840914841693505050506107c0516107e05183828309846003868386090885838409148416935050505061080051610820518382830984600386838609088583840914841693505050506108405161086051838283098460038683860908858384091484169350505050610880516108a0518382830984600386838609088583840914841693505050506108c0516108e05183828309846003868386090885838409148416935050505061090051610920518382830984600386838609088583840914841693505050506109405161096051838283098460038683860908858384091484169350505050610980516109a05183828309846003868386090885838409148416935050505080610aee57637e5769bf60e01b5f5260045ffd5b5050612bd680610afd5f395ff3fe608060405234801561000f575f80fd5b5060043610610034575f3560e01c8063937f6a1014610038578063ea50d0e41461006b575b5f80fd5b6040517ffbfe2d277b6e45404af4b268ba8b738aca75aaf546400c78a112a59ee31e06ac81526020015b60405180910390f35b61007e610079366004612ae6565b61008e565b6040519015158152602001610062565b620400006103805260126103a0527f19ddbcaf3a8d46c15c0176fbb5b95e4dc57088ff13f4d1bd84c6bfa57dcdc0e06103c0527f30644259cd94e7dd5045d7a27013b7fcd21c9e3b7fa75222e7bda49b729b04016103e0527f0f3165a09248411c8c3530c4c900e005dae86ee220d74298426b4c1fee327ec2610400527f1d65f6c02d03fc4c95bc1d05f37c8712f59b5985bab9ea339adefb7bed6f3eed610420527f170f5fb8eaccc50db44b44627a681051f51aac45ea66198f8b3f8aa779330d26610440527f0cd90b4bfbd67210ed374ca5ba08477d5dc8ca24077312d3a24edfe9a3aa4f4c610460527f1419261c1ca8298fe3c3280574a58c8b94cd369264c3389ef8f49dd612bcfe47610480527f196b7bb4a6bfc4284225d3599513c1c4d3babd25544c21262b0e7037f24bf2d16104a0527f20ffcb9505d73efa469d5af9b3801d004eacf6fc426767d3eae4f903069718bd6104c0527f17714b06872b0b2c57bb2c441ef4a9a97137f92733a91bb056f8ec2673ec57276104e0527f110771250054c7ab09d662f021a30219ec9146fad29b462efa5cd7c6e5221842610500527f0725b141a2512d3be42adcee05af426002dbd4010ac933fafd666da7278741c0610520527f26b94f2aeff2ceed5272d4c65f424ef40aa51a500afff19c386b82c21de73f6b610540527f196ed403a9159a59a52788e714f9368792247f41771c69062b5c32219af801a8610560527f2135f7f7f3705d03f5f2f5acbbcb84f08a240d9be14ab3418a177176ee1c6d6b610580527f11a0f17694cd3eed22126293757afbd53f1c87fb2dfbec82e149ad205e8a10996105a0527f11bd2f48d5b1b9e17143eba8636e64c072a516173f81bb0978777719b14faaf26105c0527f15e6b5ab62b17e48f8ed2a21cef1f1029273ee4c4af2768acc234aaf236714a76105e0527f016559f6a0d5da49bd1e41b146bf4355125bef16da5f6523bedb2a10d295d858610600527f3052f90a858b1a65a54bce7ec7a6714b0815087726c9ece9020c69f3e9937aeb610620527f2e19c568ebceb7d13dc932d3a7978301836f0bb986cc530531e90811dd0d63e0610640527f1fe278f7ff6469471d971c9adeabda25191b1b2d52a8a0b6e79a98af2ce5fcfd610660527f279b738e312ea2934ad266b354d66108b70ddc3330e1de1381384b550a9e327c610680527f2cef399261e043cdbd9d58181d7583513363721ee5257f55a2e07a2e967f3f316106a0527f09dd5d64e9cd291f7dbf01e57d11603263785ca3ce61f7de1f3fbc55d76561d46106c0527f1d643feaa4f96de3987b9b9242a89f28f21d5b3a59c35beda9558c60763d8bda6106e0527f15a5bdc47602f77eb45c35176915bd7de6523f70edcd38d088e6603fb8aad0fe610700527f2c3bfd38c18c375ddc8f572a794ee083050df3b13c80395e75b035e8b1a7ab22610720527f23525c815bc26ba979ca4de240b004f09316fc16a6167fb7bbaf07b4902cd80a610740527f24b15441a71e19f755d3605ef9759751000bb97bc6eb198eb6bdcf1b2924e0dc610760527f2ea2ff6b2f333a418bfeb964e319c449df4a91ea748fcb2009819483cf04b09e610780527f022930009c260c00c7824a575f3adc7a6ad4199ce158653edcfe6c7175f289036107a0527f175be336cda5efe297772b8c31f33a4a214f04e8d507063d0402e8888bdb112f6107c0527f23521efb62025f76a3671f00237859c78db2050f26dd94af5dd76812f960e6996107e0527f07d21b6624c2c6182194bbc895da5d1c5fe9416863023c82c1711590d17fd51b610800527f04bf03c7aca49821f11d4c282f1e35254c50b975adc28a7001f0d18504f69977610820527f061fc351158b58e44669c1f3c52ecd85cd14622e87e7495c36da187f204051ee610840527f29e6c5c2473b14a21ef24f9d72189a8dd1c5ed5fd7e1965ee612c880c6510e56610860527e4bd112c002a193ac7ab371cee47a7b49249bea67d6fb2f68482a8b6be02b92610880527f0f2f3306a937a69fa823e730fa7497c306b851662dd6d3bcf2e86638d2564ac46108a0527f0a6cece5423503abccfa8ad2bef48f2f90728c76c6e4a1bacceeef2ba71cec346108c0527eefe91e937cc51815ff2a6d6fc5d48d3ab2bb8ea83c966a8e94ca64f56b4c9b6108e0527f1c192ee411bd8cbecb97fedf77f5de8b6b5f384ea174e72689b91cc7daf503a9610900527f1e76c79b60e82ace19c27d7ef92af22d765bfe346357acb21ba264f862e50d89610920527f159b48d9fe64ed8dffc10450e8842de80c7c5797c64769a385266a0d8db1d1ec610940527f1a0dd723223c74ed322c0e033943f79b28d511f31c8c446fc9a63018327471d3610960527f0862d9ee04f4ee550a66933dcaed272b46c777647ffc9a7dfef6c75e17669d7a610980527f22eca3388311dce341ef65a81a6bbc1bf306ff202a076517035bc6412dc6eb246109a0525f6109c08190526109e08190527f260e01b251f6f1c7e7ff4e580791dee8ea51d87a358e038b4efe30fac09383c1610a00527f0118c4d5b837bcc2bc89b5b398b5974e9f5944073b32078b7e231fec938883b0610a20527f04fc6369f7110fe3d25156c1bb9a72859cf2a04641f99ba4ee413c80da6a5fe4610a40527f22febda3c0c0632a56475b4214e5615e11e6dd3f96e6cea2854a87d4dacc5e55610a60527f036853f083780e87f8d7c71d111119c57dbe118c22d5ad707a82317466c5174c613300526103a05182811461089b576040517f7667dc9b000000000000000000000000000000000000000000000000000000008152600481018290526024810184905260440160405180910390fd5b7f30644e72e131a029b85045b68181585d97816a916871ca8d3c208c16d87cfd477f30644e72e131a029b85045b68181585d2833e84879b9709143e1f593f00000016024600435018281350661122052826020820135066112005282604082013506611260528260608201350661124052826080820135066112a0528260a082013506611280528260c0820135066112e0528260e0820135066112c05282610100820135066113205282610120820135066113005282610140820135066113605282610160820135066113405282610180820135066113a052826101a08201350661138052826101c0820135066113e052826101e0820135066113c05282610200820135066114205282610220820135066114005282610240820135066114605282610260820135066114405282610280820135066114a052826102a08201350661148052816102c08201350661160052816102e0820135066116205281610300820135066116405281610320820135066116605281610340820135066116805281610360820135066116a05281610380820135066116c052816103a0820135066116e052816103c08201350661170052816103e0820135066117205281610400820135066117405281610420820135066117605281610440820135066117805281610460820135066117a05281610480820135066117c052816104a0820135066117e052816104c08201350661180052816104e0820135066119605281610500820135066119805281610520820135066119a05281610540820135066119c052816105608201350661184052816105808201350661186052816105a08201350661188052816105c0820135066118a052816105e0820135066118c05281610600820135066118e05281610620820135066119005281610640820135066119205281610660820135066119405281610680820135066119e052816106a08201350661200052816106c08201350661202052816106e0820135066120405281610700820135066120605281610720820135066120805281610740820135066120a05281610760820135066120c05281610780820135066120e052816107a08201350661210052816107c08201350661212052826107e08201350661232052826108008201350661230052826108208201350661236052826108408201350661234052506109c05115610d14576024803501806109e05160051b0190508035602082013560441b81019050604082013560881b81019050606082013560cc1b81019050608082013560a083013560441b8101905060c083013560881b8101905060e083013560cc1b8101905061010083013561012084013560441b8101905061014084013560881b8101905061016084013560cc1b810190506101808401356101a085013560441b810190506101c085013560881b810190506101e085013560cc1b810190508361340052826134205281613440528061346052868110878410168783108886101616610d0e577feba9f4a6000000000000000000000000000000000000000000000000000000005f5260045ffd5b50505050505b6103805160e01b5f526103a05160e01b60045260085f208061348052602480350160206103a05102808260206134800137600435602401915060c0826134a083013760e0016134802083810661266081905290925090508281800961268052828161268051096126a05250805f526112e0516020526112c051604052611320516060526113005160805260a05f20905081810661260052805f5260016020535060215f90812082810661262052815261136051602052611340516040526113a0516060526113805160805260a09020818106612640819052828180096133205282816133205109613340528281613340510961336052806133805250805f526113e0516020526113c05160405261142051606052611400516080526114605160a0526114405160c0526114a05160e05261148051610100526101205f2090508181066126c052806126e0525061260051612620516103c051600180856001602480350160206103a0510281018360058a0984600c8b0999505b81831015610ecc57823585811085169450858a82089050858183018909975085818c01880996505084888209905084888b099950602083019250610e8d565b50505080610efc577f374a972f000000000000000000000000000000000000000000000000000000005f5260045ffd5b50508161300052806130205250505050508081600161260051086126205109806103805160015b81811015610f38578483840992508001610f23565b5050613100528181800990508181820961312052506126c05161038051819060015b81811015610f6f578483840992508001610f5a565b50508061304052826001840382089050613300518084036103e051858286088684840992508687848808820990508684840992508687848808820990508687888686098808820990506103c051925086828609915086600188038708878485099450876001890389898b888d8b8c0909090896506130205194508493508782860994508488878709955085898388099650868a61312051890997508760205f526020805260206040528b8b8a0960605260028c036080528b60a05260205f60c05f60055afa611060577ff894a7bc000000000000000000000000000000000000000000000000000000005f5260045ffd5b5f5198508b818a0990508b8b8a0998508b828a0991508b613120518a0998508b838a0992508b858a0998508b848a0993508b8a8a0998508b888a0997508b868a0998508b613020518d8b8c090998508b896130005109613060528b888b09613080528b848709613680528b8388096130a0528b826131005109613140528b8188096130c052505050505050505050505061264051506126005161262051828361190051840982611620510101846118e051850983611600510101098384611940518509836116605101018561192051860984611640510101098485868385096116a051096133805109858661198051870985611620510101876119605188098661160051010109925085866119c051870985611660510101876119a0518809866116405101010991508586878885870961208051096133805109870382089050856126405161338051096133805285868788613060518a0361208051086130c0510961338051098208905085612640516133805109613380528586878860018a036116a051086130a05109613380510982086135005250505050508061264051613380510961338052806117205161266051098182836120205161178051096116405108820890508161266051820990508182836120005161176051096116205108820890508161266051820990508182836119e0516117005109611600510882089050816118405183846126605161186051098586612680516118805109876126a0516118a05109080808826120c0518485612660516120e051098687612680516121005109886126a051612120510908080883846001612600510861262051098461262051866118c051870908935084818687612600518609860808925084838509935084856001612600510885099350846130a05161264051099250848385089350846116c0518509935084838603850893508481868761260051612060510961168051080892505050826130c05161332051098381850383089150836120a05183099150838461314051830983089150508261338051848386038508096135205250508061334051613380510961338052806116e0516116005109816117005161162051098261172051611640510983611740516116605109847f183227397098d014dc2822db40c0ac2e9419f4243cdcb848a1f0fac9f80000008687600389036117a0510888611760518a6116205161160051090909098586878889858a08880886088408611780510894505050505081828384856116605161160051086119e051870308611760510884600286036117a05108096126405109828384858685612040510887600189036117a051080985086117a05109613380510961354052505080613320516133805109613380526002810360038203826116005184036116205108836116205185036116405108846116405186036116605108856116605187036119e05108866133805188898888088a8b8b8a088c8a8e038e8c8d09080909099350868788612640516133805109898a8988088b8c8c8a088d8a8f038f8c8d090809090985089350868788613320516133805109898a8987088b8c8c89088d898f038f8b8c090809090985089350868788613340516133805109898a8986088b8c8c88088d888f038f8a8b090809090985089350505050836117c051820961356052505061336051613380518392500961338052806116205182036119e051088161204051612040510982611640516116405109836116e05185612040516116405109098485868384088785870888030886878788098889611620516119e0510861200051080908925050508261338051848561176051870360010884090990508261202051611640510883611640518503856116e05161204051090884858287611620518903612000510809868685090893505050828361264051613380510984856117605187036001088509099150826117e0518484840809613580525050806116205161162051098161164051611640510982611620518460118408098360048309915083600982099050836003840992508381850385848788611620516116205108612000510809089150508283846120205161164051088561164051611640510809840384856120005187036116205108850908915082613380518209905082836126405161338051098309915082611760518209905082611760518309915082836117e0518585850809613580510861358052505080613360516133805109613380528081611620516119e05109826120005161160051090881612020518303838461164051611620510985611660516116005109080882681000000000000000008209905082612040518403820890508282820890508261174051820990508268100000000000000000830991508283612000516119e05109830891508261172051848561166051611640510886038508098361176051858661204051612020510887038761166051880808099250836117005185858786860808096135c0525050612000518291506140009009816119e0518208905081614000820990508161164051820890508161400082099050816116205182089050816140008209905081611600518208905081611660518303820890508161174051820990508161400061202051098261200051820890508261400082099050826119e05182089050826140008209905082611660518208905082614000820990508261164051820890508261204051840382089050826117605182099050826117205184838508096135e0525050806126605161164051098161162051820890508161266051820990508161160051820890508161266051820990508161178051820890508082611660518403830891508161364052826116005184036119e05108836116605185036120405108848560018703840883098586848803600108830991508585876126405189858b61264051890908090861362052856126605161202051099450856120005186089450856126605186099450856119e0518608945085612660518609945085858703612040510894508561164051870361202051089150858687878903600108840987858903600108099150858487036116605108868760018903830882099050868760018903880887099550866126405184099250868284089250866126405184099250868684089250866126405184099250868184089250508161360052505083611620518503612000510892508361164051850385868488036001088609089250836117005161362051099150838461174051850983089150838461176051613640510983089150836116e0518309915083846117a051613600510983089150836135c05183089250836135e05184089250836118005184099250836133805184099250826135a05283613340516133805109613380525050508061368051826135a0518461358051866135605188613540518a61352051613500510808080808096136608190526126e0516136a08190526136c0919091526102e460043501610520816136e03750506105606136a020818106612700525f81905260016020538160215f20066127205260026020538160215f20066127405260036020538160215f20066127605260046020538160215f20066127805260056020538160215f20066127a05260066020538160215f20066127c05260076020538160215f20066127e05260086020538160215f20066128005260096020538160215f200661282052600a6020538160215f200661284052600b6020538160215f200661286052600c6020538160215f200661288052600d6020538160215f20066128a052600e6020538160215f20066128c052600f6020538160215f20066128e05260106020538160215f20066129005260116020538160215f20066129205260126020538160215f20066129405260136020538160215f20066129605260146020538160215f20066129805260156020538160215f20066129a05260166020538160215f20066129c05260176020538160215f20066129e05260186020538160215f2006612a005260196020538160215f2006612a2052601a6020538160215f2006612a4052601b6020538160215f2006612a6052601c6020538160215f2006612a8052601d6020538160215f2006612aa052601d6020535060215f908120828106612ac05281526123205160205261230051604052612360516060526123405160805260a08120829006612b00526113c0516113e0518482800985600387838609088683840914611caf576328f6b59560e21b5f5260045ffd5b50613160919091526131805261140051611420518482800985600387838609088683840914611ce7576328f6b59560e21b5f5260045ffd5b50815f528060205250506130405160405260406131a060605f60075afa90506040613160608061316060065afa8116905061144051611460518482830985600387838609088683840914611d44576328f6b59560e21b5f5260045ffd5b505f91909152602052613040518290800960405260406131a060605f60075afa16604061316060808160065afa81169050611480516114a0518482830985600387838609088683840914611da1576328f6b59560e21b5f5260045ffd5b505f91909152602052613040518290818180090960405260406131a060605f60075afa16604061316060808160065afa8116905061120051611220518482830985600387838609088683840914611e01576328f6b59560e21b5f5260045ffd5b50815f528060205250508161270051836001612b0051080960405260406131a060605f60075afa16604061316060808160065afa8116905061124051611260518482830985600387838609088683840914611e65576328f6b59560e21b5f5260045ffd5b50815f528060205250508161272051836001612b0051080960405260406131a060605f60075afa16604061316060808160065afa81169050611280516112a0518482830985600387838609088683840914611ec9576328f6b59560e21b5f5260045ffd5b50815f528060205250508161274051836001612b0051080960405260406131a060605f60075afa16604061316060808160065afa811690506112c0516112e0518482830985600387838609088683840914611f2d576328f6b59560e21b5f5260045ffd5b50815f528060205250508161276051836001612b0051080960405260406131a060605f60075afa16604061316060808160065afa8116905061130051611320518482830985600387838609088683840914611f91576328f6b59560e21b5f5260045ffd5b50815f528060205250508161278051836001612b0051080960405260406131a060605f60075afa16604061316060808160065afa8116905061134051611360518482830985600387838609088683840914611ff5576328f6b59560e21b5f5260045ffd5b50815f52806020525050816127a051836001612b0051080960405260406131a060605f60075afa16604061316060808160065afa81169050611380516113a0518482830985600387838609088683840914612059576328f6b59560e21b5f5260045ffd5b50815f52806020525050816127c051836001612b0051080960405260406131a060605f60075afa16604061316060808160065afa81169050610400515f52610420516020526127e05160405260406131a060605f60075afa16604061316060808160065afa81169050610440515f52610460516020526128005160405260406131a060605f60075afa16604061316060808160065afa81169050610480515f526104a0516020526128205160405260406131a060605f60075afa16604061316060808160065afa811690506104c0515f526104e0516020526128405160405260406131a060605f60075afa16604061316060808160065afa81169050610500515f52610520516020526128605160405260406131a060605f60075afa16604061316060808160065afa81169050610540515f52610560516020526128805160405260406131a060605f60075afa16604061316060808160065afa81169050610580515f526105a0516020526128a05160405260406131a060605f60075afa16604061316060808160065afa811690506105c0515f526105e0516020526128c05160405260406131a060605f60075afa16604061316060808160065afa81169050610600515f52610620516020526128e05160405260406131a060605f60075afa16604061316060808160065afa81169050610640515f52610660516020526129005160405260406131a060605f60075afa16604061316060808160065afa81169050610680515f526106a0516020526129205160405260406131a060605f60075afa16604061316060808160065afa811690506106c0515f526106e0516020526129405160405260406131a060605f60075afa16604061316060808160065afa81169050610700515f52610720516020526129605160405260406131a060605f60075afa16604061316060808160065afa81169050610740515f52610760516020526129805160405260406131a060605f60075afa16604061316060808160065afa81169050610780515f526107a051602052816129a051836001612b0051080960405260406131a060605f60075afa16604061316060808160065afa811690506107c0515f526107e051602052816129c051836001612b0051080960405260406131a060605f60075afa16604061316060808160065afa81169050610800515f5261082051602052816129e051836001612b0051080960405260406131a060605f60075afa16604061316060808160065afa81169050610840515f526108605160205281612a0051836001612b0051080960405260406131a060605f60075afa16604061316060808160065afa81169050610880515f526108a051602052612a205160405260406131a060605f60075afa16604061316060808160065afa811690506108c0515f526108e051602052612a405160405260406131a060605f60075afa16604061316060808160065afa81169050610900515f5261092051602052612a605160405260406131a060605f60075afa16604061316060808160065afa81169050610940515f5261096051602052612a805160405260406131a060605f60075afa16604061316060808160065afa81169050610980515f526109a051602052612aa05160405260406131a060605f60075afa16604061316060808160065afa8116905081826116005184612b00516119e051090861270051098283846116205186612b00516120005109086127205109820890508283846116405186612b00516120205109086127405109820890508283846116605186612b00516120405109086127605109820890508283846116805186612b00516120605109086127805109820890508283846116a05186612b00516120805109086127a05109820890508283846116c05186612b00516120a05109086127c051098208905082836116e0516127e051098208905082836117005161280051098208905082836117205161282051098208905082836117405161284051098208905082836117605161286051098208905082836117805161288051098208905082836117a0516128a051098208905082836117c0516128c051098208905082836117e0516128e051098208905082836118005161290051098208905082836119605161292051098208905082836119805161294051098208905082836119a05161296051098208905082836119c0516129805109820890508283846118405186612b00516120c05109086129a05109820890508283846118605186612b00516120e05109086129c05109820890508283846118805186612b00516121005109086129e05109820890508283846118a05186612b0051612120510908612a0051098208905082836118c051612a2051098208905082836118e051612a40510982089050828361190051612a60510982089050828361192051612a80510982089050828361194051612aa051098208905082613660518208905060015f5260026020528083036040525060406131a060605f60075afa16604061316060808160065afa16806127c1577f4e719763000000000000000000000000000000000000000000000000000000005f5260045ffd5b612b00516126c051612300516123205186828309876003898386090888838409146127f5576328f6b59560e21b5f5260045ffd5b50815f528060205250508060405260406131a060605f60075afa92506040613160608061316060065afa831692506123405161236051868283098760038983860908888384091461284f576328f6b59560e21b5f5260045ffd5b50815f52806020525050836103c05185838509096040525060406131a060605f60075afa821691506040613220608061316060065afa82169150612300515f52612320516020526123405160405261236051606052806080526040806060604060075afa8216915060406131e060805f60065afa82169150613200518403613200526109c051156129a45761340051613420518582830986600388838609088783840914612906576328f6b59560e21b5f5260045ffd5b505f919091526020528281800960405260406060805f60075afa8216915061344051613460518582830986600388838609088783840914612950576328f6b59560e21b5f5260045ffd5b505f91825260205260409060608160075afa821691506132205160a0526132405160c05260406132206080606060065afa821691506131e0516040526132005160605260406131e060805f60065afa821691505b50806129d2577f01882d81000000000000000000000000000000000000000000000000000000005f5260045ffd5b613220515f52613240516020527f198e9393920d483a7260bfb731fb5d25f1aa493335a9e71297e485b7aef312c26040527f1800deef121f1e76426a00665e5c4479674322d4f75edadd46debd5cd992f6ed6060527f090689d0585ff075ec9e99ad690c3395bc4b313370b38ef355acdadcd122975b6080527f12c85ea5db8c6deb4aab71808dcb408fe3d1e7690c43d37b4ce6cc0166fa7daa60a0526131e05160c0526132005160e052610a005161010052610a205161012052610a405161014052610a60516101605260205f6101805f60085afa90505f518116612ada577fd71fd263000000000000000000000000000000000000000000000000000000005f5260045ffd5b50505060015f5260205ff35b5f805f8060408587031215612af9575f80fd5b843567ffffffffffffffff80821115612b10575f80fd5b818701915087601f830112612b23575f80fd5b813581811115612b31575f80fd5b886020828501011115612b42575f80fd5b602092830196509450908601359080821115612b5c575f80fd5b818701915087601f830112612b6f575f80fd5b813581811115612b7d575f80fd5b8860208260051b8501011115612b91575f80fd5b9598949750506020019450505056fea2646970667358221220a212125a0b5f6f227bd3b77888dcf83e1b38b7a8e4e1983aa62e5493134b340b64736f6c63430008160033",
			"opcodes": "PUSH1 0x80 PUSH1 0x40 MSTORE CALLVALUE DUP1 ISZERO PUSH2 0xF JUMPI PUSH0 DUP1 REVERT JUMPDEST POP PUSH3 0x40000 PUSH2 0x380 MSTORE PUSH1 0x12 PUSH2 0x3A0 MSTORE PUSH32 0x19DDBCAF3A8D46C15C0176FBB5B95E4DC57088FF13F4D1BD84C6BFA57DCDC0E0 PUSH2 0x3C0 MSTORE PUSH32 0x30644259CD94E7DD5045D7A27013B7FCD21C9E3B7FA75222E7BDA49B729B0401 PUSH2 0x3E0 MSTORE PUSH32 0xF3165A09248411C8C3530C4C900E005DAE86EE220D74298426B4C1FEE327EC2 PUSH2 0x400 MSTORE PUSH32 0x1D65F6C02D03FC4C95BC1D05F37C8712F59B5985BAB9EA339ADEFB7BED6F3EED PUSH2 0x420 MSTORE PUSH32 0x170F5FB8EACCC50DB44B44627A681051F51AAC45EA66198F8B3F8AA779330D26 PUSH2 0x440 MSTORE PUSH32 0xCD90B4BFBD67210ED374CA5BA08477D5DC8CA24077312D3A24EDFE9A3AA4F4C PUSH2 0x460 MSTORE PUSH32 0x1419261C1CA8298FE3C3280574A58C8B94CD369264C3389EF8F49DD612BCFE47 PUSH2 0x480 MSTORE PUSH32 0x196B7BB4A6BFC4284225D3599513C1C4D3BABD25544C21262B0E7037F24BF2D1 PUSH2 0x4A0 MSTORE PUSH32 0x20FFCB9505D73EFA469D5AF9B3801D004EACF6FC426767D3EAE4F903069718BD PUSH2 0x4C0 MSTORE PUSH32 0x17714B06872B0B2C57BB2C441EF4A9A97137F92733A91BB056F8EC2673EC5727 PUSH2 0x4E0 MSTORE PUSH32 0x110771250054C7AB09D662F021A30219EC9146FAD29B462EFA5CD7C6E5221842 PUSH2 0x500 MSTORE PUSH32 0x725B141A2512D3BE42ADCEE05AF426002DBD4010AC933FAFD666DA7278741C0 PUSH2 0x520 MSTORE PUSH32 0x26B94F2AEFF2CEED5272D4C65F424EF40AA51A500AFFF19C386B82C21DE73F6B PUSH2 0x540 MSTORE PUSH32 0x196ED403A9159A59A52788E714F9368792247F41771C69062B5C32219AF801A8 PUSH2 0x560 MSTORE PUSH32 0x2135F7F7F3705D03F5F2F5ACBBCB84F08A240D9BE14AB3418A177176EE1C6D6B PUSH2 0x580 MSTORE PUSH32 0x11A0F17694CD3EED22126293757AFBD53F1C87FB2DFBEC82E149AD205E8A1099 PUSH2 0x5A0 MSTORE PUSH32 0x11BD2F48D5B1B9E17143EBA8636E64C072A516173F81BB0978777719B14FAAF2 PUSH2 0x5C0 MSTORE PUSH32 0x15E6B5AB62B17E48F8ED2A21CEF1F1029273EE4C4AF2768ACC234AAF236714A7 PUSH2 0x5E0 MSTORE PUSH32 0x16559F6A0D5DA49BD1E41B146BF4355125BEF16DA5F6523BEDB2A10D295D858 PUSH2 0x600 MSTORE PUSH32 0x3052F90A858B1A65A54BCE7EC7A6714B0815087726C9ECE9020C69F3E9937AEB PUSH2 0x620 MSTORE PUSH32 0x2E19C568EBCEB7D13DC932D3A7978301836F0BB986CC530531E90811DD0D63E0 PUSH2 0x640 MSTORE PUSH32 0x1FE278F7FF6469471D971C9ADEABDA25191B1B2D52A8A0B6E79A98AF2CE5FCFD PUSH2 0x660 MSTORE PUSH32 0x279B738E312EA2934AD266B354D66108B70DDC3330E1DE1381384B550A9E327C PUSH2 0x680 MSTORE PUSH32 0x2CEF399261E043CDBD9D58181D7583513363721EE5257F55A2E07A2E967F3F31 PUSH2 0x6A0 MSTORE PUSH32 0x9DD5D64E9CD291F7DBF01E57D11603263785CA3CE61F7DE1F3FBC55D76561D4 PUSH2 0x6C0 MSTORE PUSH32 0x1D643FEAA4F96DE3987B9B9242A89F28F21D5B3A59C35BEDA9558C60763D8BDA PUSH2 0x6E0 MSTORE PUSH32 0x15A5BDC47602F77EB45C35176915BD7DE6523F70EDCD38D088E6603FB8AAD0FE PUSH2 0x700 MSTORE PUSH32 0x2C3BFD38C18C375DDC8F572A794EE083050DF3B13C80395E75B035E8B1A7AB22 PUSH2 0x720 MSTORE PUSH32 0x23525C815BC26BA979CA4DE240B004F09316FC16A6167FB7BBAF07B4902CD80A PUSH2 0x740 MSTORE PUSH32 0x24B15441A71E19F755D3605EF9759751000BB97BC6EB198EB6BDCF1B2924E0DC PUSH2 0x760 MSTORE PUSH32 0x2EA2FF6B2F333A418BFEB964E319C449DF4A91EA748FCB2009819483CF04B09E PUSH2 0x780 MSTORE PUSH32 0x22930009C260C00C7824A575F3ADC7A6AD4199CE158653EDCFE6C7175F28903 PUSH2 0x7A0 MSTORE PUSH32 0x175BE336CDA5EFE297772B8C31F33A4A214F04E8D507063D0402E8888BDB112F PUSH2 0x7C0 MSTORE PUSH32 0x23521EFB62025F76A3671F00237859C78DB2050F26DD94AF5DD76812F960E699 PUSH2 0x7E0 MSTORE PUSH32 0x7D21B6624C2C6182194BBC895DA5D1C5FE9416863023C82C1711590D17FD51B PUSH2 0x800 MSTORE PUSH32 0x4BF03C7ACA49821F11D4C282F1E35254C50B975ADC28A7001F0D18504F69977 PUSH2 0x820 MSTORE PUSH32 0x61FC351158B58E44669C1F3C52ECD85CD14622E87E7495C36DA187F204051EE PUSH2 0x840 MSTORE PUSH32 0x29E6C5C2473B14A21EF24F9D72189A8DD1C5ED5FD7E1965EE612C880C6510E56 PUSH2 0x860 MSTORE PUSH31 0x4BD112C002A193AC7AB371CEE47A7B49249BEA67D6FB2F68482A8B6BE02B92 PUSH2 0x880 MSTORE PUSH32 0xF2F3306A937A69FA823E730FA7497C306B851662DD6D3BCF2E86638D2564AC4 PUSH2 0x8A0 MSTORE PUSH32 0xA6CECE5423503ABCCFA8AD2BEF48F2F90728C76C6E4A1BACCEEEF2BA71CEC34 PUSH2 0x8C0 MSTORE PUSH31 0xEFE91E937CC51815FF2A6D6FC5D48D3AB2BB8EA83C966A8E94CA64F56B4C9B PUSH2 0x8E0 MSTORE PUSH32 0x1C192EE411BD8CBECB97FEDF77F5DE8B6B5F384EA174E72689B91CC7DAF503A9 PUSH2 0x900 MSTORE PUSH32 0x1E76C79B60E82ACE19C27D7EF92AF22D765BFE346357ACB21BA264F862E50D89 PUSH2 0x920 MSTORE PUSH32 0x159B48D9FE64ED8DFFC10450E8842DE80C7C5797C64769A385266A0D8DB1D1EC PUSH2 0x940 MSTORE PUSH32 0x1A0DD723223C74ED322C0E033943F79B28D511F31C8C446FC9A63018327471D3 PUSH2 0x960 MSTORE PUSH32 0x862D9EE04F4EE550A66933DCAED272B46C777647FFC9A7DFEF6C75E17669D7A PUSH2 0x980 MSTORE PUSH32 0x22ECA3388311DCE341EF65A81A6BBC1BF306FF202A076517035BC6412DC6EB24 PUSH2 0x9A0 MSTORE PUSH0 PUSH2 0x9C0 DUP2 SWAP1 MSTORE PUSH2 0x9E0 MSTORE PUSH32 0x260E01B251F6F1C7E7FF4E580791DEE8EA51D87A358E038B4EFE30FAC09383C1 PUSH2 0xA00 MSTORE PUSH32 0x118C4D5B837BCC2BC89B5B398B5974E9F5944073B32078B7E231FEC938883B0 PUSH2 0xA20 MSTORE PUSH32 0x4FC6369F7110FE3D25156C1BB9A72859CF2A04641F99BA4EE413C80DA6A5FE4 PUSH2 0xA40 MSTORE PUSH32 0x22FEBDA3C0C0632A56475B4214E5615E11E6DD3F96E6CEA2854A87D4DACC5E55 PUSH2 0xA60 MSTORE PUSH32 0x36853F083780E87F8D7C71D111119C57DBE118C22D5AD707A82317466C5174C PUSH2 0x3300 MSTORE PUSH32 0x30644E72E131A029B85045B68181585D97816A916871CA8D3C208C16D87CFD47 PUSH1 0x1 PUSH2 0x400 MLOAD PUSH2 0x420 MLOAD DUP4 DUP3 DUP4 MULMOD DUP5 PUSH1 0x3 DUP7 DUP4 DUP7 MULMOD ADDMOD DUP6 DUP4 DUP5 MULMOD EQ DUP5 AND SWAP4 POP POP POP POP PUSH2 0x440 MLOAD PUSH2 0x460 MLOAD DUP4 DUP3 DUP4 MULMOD DUP5 PUSH1 0x3 DUP7 DUP4 DUP7 MULMOD ADDMOD DUP6 DUP4 DUP5 MULMOD EQ DUP5 AND SWAP4 POP POP POP POP PUSH2 0x480 MLOAD PUSH2 0x4A0 MLOAD DUP4 DUP3 DUP4 MULMOD DUP5 PUSH1 0x3 DUP7 DUP4 DUP7 MULMOD ADDMOD DUP6 DUP4 DUP5 MULMOD EQ DUP5 AND SWAP4 POP POP POP POP PUSH2 0x4C0 MLOAD PUSH2 0x4E0 MLOAD DUP4 DUP3 DUP4 MULMOD DUP5 PUSH1 0x3 DUP7 DUP4 DUP7 MULMOD ADDMOD DUP6 DUP4 DUP5 MULMOD EQ DUP5 AND SWAP4 POP POP DUP2 PUSH0 MSTORE DUP1 PUSH1 0x20 MSTORE POP POP PUSH2 0x500 MLOAD PUSH2 0x520 MLOAD DUP4 DUP3 DUP4 MULMOD DUP5 PUSH1 0x3 DUP7 DUP4 DUP7 MULMOD ADDMOD DUP6 DUP4 DUP5 MULMOD EQ DUP5 AND SWAP4 POP POP POP POP PUSH2 0x540 MLOAD PUSH2 0x560 MLOAD DUP4 DUP3 DUP4 MULMOD DUP5 PUSH1 0x3 DUP7 DUP4 DUP7 MULMOD ADDMOD DUP6 DUP4 DUP5 MULMOD EQ DUP5 AND SWAP4 POP POP POP POP PUSH2 0x580 MLOAD PUSH2 0x5A0 MLOAD DUP4 DUP3 DUP4 MULMOD DUP5 PUSH1 0x3 DUP7 DUP4 DUP7 MULMOD ADDMOD DUP6 DUP4 DUP5 MULMOD EQ DUP5 AND SWAP4 POP POP POP POP PUSH2 0x5C0 MLOAD PUSH2 0x5E0 MLOAD DUP4 DUP3 DUP4 MULMOD DUP5 PUSH1 0x3 DUP7 DUP4 DUP7 MULMOD ADDMOD DUP6 DUP4 DUP5 MULMOD EQ DUP5 AND SWAP4 POP POP POP POP PUSH2 0x600 MLOAD PUSH2 0x620 MLOAD DUP4 DUP3 DUP4 MULMOD DUP5 PUSH1 0x3 DUP7 DUP4 DUP7 MULMOD ADDMOD DUP6 DUP4 DUP5 MULMOD EQ DUP5 AND SWAP4 POP POP POP POP PUSH2 0x640 MLOAD PUSH2 0x660 MLOAD DUP4 DUP3 DUP4 MULMOD DUP5 PUSH1 0x3 DUP7 DUP4 DUP7 MULMOD ADDMOD DUP6 DUP4 DUP5 MULMOD EQ DUP5 AND SWAP4 POP POP POP POP PUSH2 0x680 MLOAD PUSH2 0x6A0 MLOAD DUP4 DUP3 DUP4 MULMOD DUP5 PUSH1 0x3 DUP7 DUP4 DUP7 MULMOD ADDMOD DUP6 DUP4 DUP5 MULMOD EQ DUP5 AND SWAP4 POP POP POP POP PUSH2 0x6C0 MLOAD PUSH2 0x6E0 MLOAD DUP4 DUP3 DUP4 MULMOD DUP5 PUSH1 0x3 DUP7 DUP4 DUP7 MULMOD ADDMOD DUP6 DUP4 DUP5 MULMOD EQ DUP5 AND SWAP4 POP POP POP POP PUSH2 0x700 MLOAD PUSH2 0x720 MLOAD DUP4 DUP3 DUP4 MULMOD DUP5 PUSH1 0x3 DUP7 DUP4 DUP7 MULMOD ADDMOD DUP6 DUP4 DUP5 MULMOD EQ DUP5 AND SWAP4 POP POP POP POP PUSH2 0x740 MLOAD PUSH2 0x760 MLOAD DUP4 DUP3 DUP4 MULMOD DUP5 PUSH1 0x3 DUP7 DUP4 DUP7 MULMOD ADDMOD DUP6 DUP4 DUP5 MULMOD EQ DUP5 AND SWAP4 POP POP POP POP PUSH2 0x780 MLOAD PUSH2 0x7A0 MLOAD DUP4 DUP3 DUP4 MULMOD DUP5 PUSH1 0x3 DUP7 DUP4 DUP7 MULMOD ADDMOD DUP6 DUP4 DUP5 MULMOD EQ DUP5 AND SWAP4 POP POP POP POP PUSH2 0x7C0 MLOAD PUSH2 0x7E0 MLOAD DUP4 DUP3 DUP4 MULMOD DUP5 PUSH1 0x3 DUP7 DUP4 DUP7 MULMOD ADDMOD DUP6 DUP4 DUP5 MULMOD EQ DUP5 AND SWAP4 POP POP POP POP PUSH2 0x800 MLOAD PUSH2 0x820 MLOAD DUP4 DUP3 DUP4 MULMOD DUP5 PUSH1 0x3 DUP7 DUP4 DUP7 MULMOD ADDMOD DUP6 DUP4 DUP5 MULMOD EQ DUP5 AND SWAP4 POP POP POP POP PUSH2 0x840 MLOAD PUSH2 0x860 MLOAD DUP4 DUP3 DUP4 MULMOD DUP5 PUSH1 0x3 DUP7 DUP4 DUP7 MULMOD ADDMOD DUP6 DUP4 DUP5 MULMOD EQ DUP5 AND SWAP4 POP POP POP POP PUSH2 0x880 MLOAD PUSH2 0x8A0 MLOAD DUP4 DUP3 DUP4 MULMOD DUP5 PUSH1 0x3 DUP7 DUP4 DUP7 MULMOD ADDMOD DUP6 DUP4 DUP5 MULMOD EQ DUP5 AND SWAP4 POP POP POP POP PUSH2 0x8C0 MLOAD PUSH2 0x8E0 MLOAD DUP4 DUP3 DUP4 MULMOD DUP5 PUSH1 0x3 DUP7 DUP4 DUP7 MULMOD ADDMOD DUP6 DUP4 DUP5 MULMOD EQ DUP5 AND SWAP4 POP POP POP POP PUSH2 0x900 MLOAD PUSH2 0x920 MLOAD DUP4 DUP3 DUP4 MULMOD DUP5 PUSH1 0x3 DUP7 DUP4 DUP7 MULMOD ADDMOD DUP6 DUP4 DUP5 MULMOD EQ DUP5 AND SWAP4 POP POP POP POP PUSH2 0x940 MLOAD PUSH2 0x960 MLOAD DUP4 DUP3 DUP4 MULMOD DUP5 PUSH1 0x3 DUP7 DUP4 DUP7 MULMOD ADDMOD DUP6 DUP4 DUP5 MULMOD EQ DUP5 AND SWAP4 POP POP POP POP PUSH2 0x980 MLOAD PUSH2 0x9A0 MLOAD DUP4 DUP3 DUP4 MULMOD DUP5 PUSH1 0x3 DUP7 DUP4 DUP7 MULMOD ADDMOD DUP6 DUP4 DUP5 MULMOD EQ DUP5 AND SWAP4 POP POP POP POP DUP1 PUSH2 0xAEE JUMPI PUSH4 0x7E5769BF PUSH1 0xE0 SHL PUSH0 MSTORE PUSH1 0x4 PUSH0 REVERT JUMPDEST POP POP PUSH2 0x2BD6 DUP1 PUSH2 0xAFD PUSH0 CODECOPY PUSH0 RETURN INVALID PUSH1 0x80 PUSH1 0x40 MSTORE CALLVALUE DUP1 ISZERO PUSH2 0xF JUMPI PUSH0 DUP1 REVERT JUMPDEST POP PUSH1 0x4 CALLDATASIZE LT PUSH2 0x34 JUMPI PUSH0 CALLDATALOAD PUSH1 0xE0 SHR DUP1 PUSH4 0x937F6A10 EQ PUSH2 0x38 JUMPI DUP1 PUSH4 0xEA50D0E4 EQ PUSH2 0x6B JUMPI JUMPDEST PUSH0 DUP1 REVERT JUMPDEST PUSH1 0x40 MLOAD PUSH32 0xFBFE2D277B6E45404AF4B268BA8B738ACA75AAF546400C78A112A59EE31E06AC DUP2 MSTORE PUSH1 0x20 ADD JUMPDEST PUSH1 0x40 MLOAD DUP1 SWAP2 SUB SWAP1 RETURN JUMPDEST PUSH2 0x7E PUSH2 0x79 CALLDATASIZE PUSH1 0x4 PUSH2 0x2AE6 JUMP JUMPDEST PUSH2 0x8E JUMP JUMPDEST PUSH1 0x40 MLOAD SWAP1 ISZERO ISZERO DUP2 MSTORE PUSH1 0x20 ADD PUSH2 0x62 JUMP JUMPDEST PUSH3 0x40000 PUSH2 0x380 MSTORE PUSH1 0x12 PUSH2 0x3A0 MSTORE PUSH32 0x19DDBCAF3A8D46C15C0176FBB5B95E4DC57088FF13F4D1BD84C6BFA57DCDC0E0 PUSH2 0x3C0 MSTORE PUSH32 0x30644259CD94E7DD5045D7A27013B7FCD21C9E3B7FA75222E7BDA49B729B0401 PUSH2 0x3E0 MSTORE PUSH32 0xF3165A09248411C8C3530C4C900E005DAE86EE220D74298426B4C1FEE327EC2 PUSH2 0x400 MSTORE PUSH32 0x1D65F6C02D03FC4C95BC1D05F37C8712F59B5985BAB9EA339ADEFB7BED6F3EED PUSH2 0x420 MSTORE PUSH32 0x170F5FB8EACCC50DB44B44627A681051F51AAC45EA66198F8B3F8AA779330D26 PUSH2 0x440 MSTORE PUSH32 0xCD90B4BFBD67210ED374CA5BA08477D5DC8CA24077312D3A24EDFE9A3AA4F4C PUSH2 0x460 MSTORE PUSH32 0x1419261C1CA8298FE3C3280574A58C8B94CD369264C3389EF8F49DD612BCFE47 PUSH2 0x480 MSTORE PUSH32 0x196B7BB4A6BFC4284225D3599513C1C4D3BABD25544C21262B0E7037F24BF2D1 PUSH2 0x4A0 MSTORE PUSH32 0x20FFCB9505D73EFA469D5AF9B3801D004EACF6FC426767D3EAE4F903069718BD PUSH2 0x4C0 MSTORE PUSH32 0x17714B06872B0B2C57BB2C441EF4A9A97137F92733A91BB056F8EC2673EC5727 PUSH2 0x4E0 MSTORE PUSH32 0x110771250054C7AB09D662F021A30219EC9146FAD29B462EFA5CD7C6E5221842 PUSH2 0x500 MSTORE PUSH32 0x725B141A2512D3BE42ADCEE05AF426002DBD4010AC933FAFD666DA7278741C0 PUSH2 0x520 MSTORE PUSH32 0x26B94F2AEFF2CEED5272D4C65F424EF40AA51A500AFFF19C386B82C21DE73F6B PUSH2 0x540 MSTORE PUSH32 0x196ED403A9159A59A52788E714F9368792247F41771C69062B5C32219AF801A8 PUSH2 0x560 MSTORE PUSH32 0x2135F7F7F3705D03F5F2F5ACBBCB84F08A240D9BE14AB3418A177176EE1C6D6B PUSH2 0x580 MSTORE PUSH32 0x11A0F17694CD3EED22126293757AFBD53F1C87FB2DFBEC82E149AD205E8A1099 PUSH2 0x5A0 MSTORE PUSH32 0x11BD2F48D5B1B9E17143EBA8636E64C072A516173F81BB0978777719B14FAAF2 PUSH2 0x5C0 MSTORE PUSH32 0x15E6B5AB62B17E48F8ED2A21CEF1F1029273EE4C4AF2768ACC234AAF236714A7 PUSH2 0x5E0 MSTORE PUSH32 0x16559F6A0D5DA49BD1E41B146BF4355125BEF16DA5F6523BEDB2A10D295D858 PUSH2 0x600 MSTORE PUSH32 0x3052F90A858B1A65A54BCE7EC7A6714B0815087726C9ECE9020C69F3E9937AEB PUSH2 0x620 MSTORE PUSH32 0x2E19C568EBCEB7D13DC932D3A7978301836F0BB986CC530531E90811DD0D63E0 PUSH2 0x640 MSTORE PUSH32 0x1FE278F7FF6469471D971C9ADEABDA25191B1B2D52A8A0B6E79A98AF2CE5FCFD PUSH2 0x660 MSTORE PUSH32 0x279B738E312EA2934AD266B354D66108B70DDC3330E1DE1381384B550A9E327C PUSH2 0x680 MSTORE PUSH32 0x2CEF399261E043CDBD9D58181D7583513363721EE5257F55A2E07A2E967F3F31 PUSH2 0x6A0 MSTORE PUSH32 0x9DD5D64E9CD291F7DBF01E57D11603263785CA3CE61F7DE1F3FBC55D76561D4 PUSH2 0x6C0 MSTORE PUSH32 0x1D643FEAA4F96DE3987B9B9242A89F28F21D5B3A59C35BEDA9558C60763D8BDA PUSH2 0x6E0 MSTORE PUSH32 0x15A5BDC47602F77EB45C35176915BD7DE6523F70EDCD38D088E6603FB8AAD0FE PUSH2 0x700 MSTORE PUSH32 0x2C3BFD38C18C375DDC8F572A794EE083050DF3B13C80395E75B035E8B1A7AB22 PUSH2 0x720 MSTORE PUSH32 0x23525C815BC26BA979CA4DE240B004F09316FC16A6167FB7BBAF07B4902CD80A PUSH2 0x740 MSTORE PUSH32 0x24B15441A71E19F755D3605EF9759751000BB97BC6EB198EB6BDCF1B2924E0DC PUSH2 0x760 MSTORE PUSH32 0x2EA2FF6B2F333A418BFEB964E319C449DF4A91EA748FCB2009819483CF04B09E PUSH2 0x780 MSTORE PUSH32 0x22930009C260C00C7824A575F3ADC7A6AD4199CE158653EDCFE6C7175F28903 PUSH2 0x7A0 MSTORE PUSH32 0x175BE336CDA5EFE297772B8C31F33A4A214F04E8D507063D0402E8888BDB112F PUSH2 0x7C0 MSTORE PUSH32 0x23521EFB62025F76A3671F00237859C78DB2050F26DD94AF5DD76812F960E699 PUSH2 0x7E0 MSTORE PUSH32 0x7D21B6624C2C6182194BBC895DA5D1C5FE9416863023C82C1711590D17FD51B PUSH2 0x800 MSTORE PUSH32 0x4BF03C7ACA49821F11D4C282F1E35254C50B975ADC28A7001F0D18504F69977 PUSH2 0x820 MSTORE PUSH32 0x61FC351158B58E44669C1F3C52ECD85CD14622E87E7495C36DA187F204051EE PUSH2 0x840 MSTORE PUSH32 0x29E6C5C2473B14A21EF24F9D72189A8DD1C5ED5FD7E1965EE612C880C6510E56 PUSH2 0x860 MSTORE PUSH31 0x4BD112C002A193AC7AB371CEE47A7B49249BEA67D6FB2F68482A8B6BE02B92 PUSH2 0x880 MSTORE PUSH32 0xF2F3306A937A69FA823E730FA7497C306B851662DD6D3BCF2E86638D2564AC4 PUSH2 0x8A0 MSTORE PUSH32 0xA6CECE5423503ABCCFA8AD2BEF48F2F90728C76C6E4A1BACCEEEF2BA71CEC34 PUSH2 0x8C0 MSTORE PUSH31 0xEFE91E937CC51815FF2A6D6FC5D48D3AB2BB8EA83C966A8E94CA64F56B4C9B PUSH2 0x8E0 MSTORE PUSH32 0x1C192EE411BD8CBECB97FEDF77F5DE8B6B5F384EA174E72689B91CC7DAF503A9 PUSH2 0x900 MSTORE PUSH32 0x1E76C79B60E82ACE19C27D7EF92AF22D765BFE346357ACB21BA264F862E50D89 PUSH2 0x920 MSTORE PUSH32 0x159B48D9FE64ED8DFFC10450E8842DE80C7C5797C64769A385266A0D8DB1D1EC PUSH2 0x940 MSTORE PUSH32 0x1A0DD723223C74ED322C0E033943F79B28D511F31C8C446FC9A63018327471D3 PUSH2 0x960 MSTORE PUSH32 0x862D9EE04F4EE550A66933DCAED272B46C777647FFC9A7DFEF6C75E17669D7A PUSH2 0x980 MSTORE PUSH32 0x22ECA3388311DCE341EF65A81A6BBC1BF306FF202A076517035BC6412DC6EB24 PUSH2 0x9A0 MSTORE PUSH0 PUSH2 0x9C0 DUP2 SWAP1 MSTORE PUSH2 0x9E0 DUP2 SWAP1 MSTORE PUSH32 0x260E01B251F6F1C7E7FF4E580791DEE8EA51D87A358E038B4EFE30FAC09383C1 PUSH2 0xA00 MSTORE PUSH32 0x118C4D5B837BCC2BC89B5B398B5974E9F5944073B32078B7E231FEC938883B0 PUSH2 0xA20 MSTORE PUSH32 0x4FC6369F7110FE3D25156C1BB9A72859CF2A04641F99BA4EE413C80DA6A5FE4 PUSH2 0xA40 MSTORE PUSH32 0x22FEBDA3C0C0632A56475B4214E5615E11E6DD3F96E6CEA2854A87D4DACC5E55 PUSH2 0xA60 MSTORE PUSH32 0x36853F083780E87F8D7C71D111119C57DBE118C22D5AD707A82317466C5174C PUSH2 0x3300 MSTORE PUSH2 0x3A0 MLOAD DUP3 DUP2 EQ PUSH2 0x89B JUMPI PUSH1 0x40 MLOAD PUSH32 0x7667DC9B00000000000000000000000000000000000000000000000000000000 DUP2 MSTORE PUSH1 0x4 DUP2 ADD DUP3 SWAP1 MSTORE PUSH1 0x24 DUP2 ADD DUP5 SWAP1 MSTORE PUSH1 0x44 ADD PUSH1 0x40 MLOAD DUP1 SWAP2 SUB SWAP1 REVERT JUMPDEST PUSH32 0x30644E72E131A029B85045B68181585D97816A916871CA8D3C208C16D87CFD47 PUSH32 0x30644E72E131A029B85045B68181585D2833E84879B9709143E1F593F0000001 PUSH1 0x24 PUSH1 0x4 CALLDATALOAD ADD DUP3 DUP2 CALLDATALOAD MOD PUSH2 0x1220 MSTORE DUP3 PUSH1 0x20 DUP3 ADD CALLDATALOAD MOD PUSH2 0x1200 MSTORE DUP3 PUSH1 0x40 DUP3 ADD CALLDATALOAD MOD PUSH2 0x1260 MSTORE DUP3 PUSH1 0x60 DUP3 ADD CALLDATALOAD MOD PUSH2 0x1240 MSTORE DUP3 PUSH1 0x80 DUP3 ADD CALLDATALOAD MOD PUSH2 0x12A0 MSTORE DUP3 PUSH1 0xA0 DUP3 ADD CALLDATALOAD MOD PUSH2 0x1280 MSTORE DUP3 PUSH1 0xC0 DUP3 ADD CALLDATALOAD MOD PUSH2 0x12E0 MSTORE DUP3 PUSH1 0xE0 DUP3 ADD CALLDATALOAD MOD PUSH2 0x12C0 MSTORE DUP3 PUSH2 0x100 DUP3 ADD CALLDATALOAD MOD PUSH2 0x1320 MSTORE DUP3 PUSH2 0x120 DUP3 ADD CALLDATALOAD MOD PUSH2 0x1300 MSTORE DUP3 PUSH2 0x140 DUP3 ADD CALLDATALOAD MOD PUSH2 0x1360 MSTORE DUP3 PUSH2 0x160 DUP3 ADD CALLDATALOAD MOD PUSH2 0x1340 MSTORE DUP3 PUSH2 0x180 DUP3 ADD CALLDATALOAD MOD PUSH2 0x13A0 MSTORE DUP3 PUSH2 0x1A0 DUP3 ADD CALLDATALOAD MOD PUSH2 0x1380 MSTORE DUP3 PUSH2 0x1C0 DUP3 ADD CALLDATALOAD MOD PUSH2 0x13E0 MSTORE DUP3 PUSH2 0x1E0 DUP3 ADD CALLDATALOAD MOD PUSH2 0x13C0 MSTORE DUP3 PUSH2 0x200 DUP3 ADD CALLDATALOAD MOD PUSH2 0x1420 MSTORE DUP3 PUSH2 0x220 DUP3 ADD CALLDATALOAD MOD PUSH2 0x1400 MSTORE DUP3 PUSH2 0x240 DUP3 ADD CALLDATALOAD MOD PUSH2 0x1460 MSTORE DUP3 PUSH2 0x260 DUP3 ADD CALLDATALOAD MOD PUSH2 0x1440 MSTORE DUP3 PUSH2 0x280 DUP3 ADD CALLDATALOAD MOD PUSH2 0x14A0 MSTORE DUP3 PUSH2 0x2A0 DUP3 ADD CALLDATALOAD MOD PUSH2 0x1480 MSTORE DUP2 PUSH2 0x2C0 DUP3 ADD CALLDATALOAD MOD PUSH2 0x1600 MSTORE DUP2 PUSH2 0x2E0 DUP3 ADD CALLDATALOAD MOD PUSH2 0x1620 MSTORE DUP2 PUSH2 0x300 DUP3 ADD CALLDATALOAD MOD PUSH2 0x1640 MSTORE DUP2 PUSH2 0x320 DUP3 ADD CALLDATALOAD MOD PUSH2 0x1660 MSTORE DUP2 PUSH2 0x340 DUP3 ADD CALLDATALOAD MOD PUSH2 0x1680 MSTORE DUP2 PUSH2 0x360 DUP3 ADD CALLDATALOAD MOD PUSH2 0x16A0 MSTORE DUP2 PUSH2 0x380 DUP3 ADD CALLDATALOAD MOD PUSH2 0x16C0 MSTORE DUP2 PUSH2 0x3A0 DUP3 ADD CALLDATALOAD MOD PUSH2 0x16E0 MSTORE DUP2 PUSH2 0x3C0 DUP3 ADD CALLDATALOAD MOD PUSH2 0x1700 MSTORE DUP2 PUSH2 0x3E0 DUP3 ADD CALLDATALOAD MOD PUSH2 0x1720 MSTORE DUP2 PUSH2 0x400 DUP3 ADD CALLDATALOAD MOD PUSH2 0x1740 MSTORE DUP2 PUSH2 0x420 DUP3 ADD CALLDATALOAD MOD PUSH2 0x1760 MSTORE DUP2 PUSH2 0x440 DUP3 ADD CALLDATALOAD MOD PUSH2 0x1780 MSTORE DUP2 PUSH2 0x460 DUP3 ADD CALLDATALOAD MOD PUSH2 0x17A0 MSTORE DUP2 PUSH2 0x480 DUP3 ADD CALLDATALOAD MOD PUSH2 0x17C0 MSTORE DUP2 PUSH2 0x4A0 DUP3 ADD CALLDATALOAD MOD PUSH2 0x17E0 MSTORE DUP2 PUSH2 0x4C0 DUP3 ADD CALLDATALOAD MOD PUSH2 0x1800 MSTORE DUP2 PUSH2 0x4E0 DUP3 ADD CALLDATALOAD MOD PUSH2 0x1960 MSTORE DUP2 PUSH2 0x500 DUP3 ADD CALLDATALOAD MOD PUSH2 0x1980 MSTORE DUP2 PUSH2 0x520 DUP3 ADD CALLDATALOAD MOD PUSH2 0x19A0 MSTORE DUP2 PUSH2 0x540 DUP3 ADD CALLDATALOAD MOD PUSH2 0x19C0 MSTORE DUP2 PUSH2 0x560 DUP3 ADD CALLDATALOAD MOD PUSH2 0x1840 MSTORE DUP2 PUSH2 0x580 DUP3 ADD CALLDATALOAD MOD PUSH2 0x1860 MSTORE DUP2 PUSH2 0x5A0 DUP3 ADD CALLDATALOAD MOD PUSH2 0x1880 MSTORE DUP2 PUSH2 0x5C0 DUP3 ADD CALLDATALOAD MOD PUSH2 0x18A0 MSTORE DUP2 PUSH2 0x5E0 DUP3 ADD CALLDATALOAD MOD PUSH2 0x18C0 MSTORE DUP2 PUSH2 0x600 DUP3 ADD CALLDATALOAD MOD PUSH2 0x18E0 MSTORE DUP2 PUSH2 0x620 DUP3 ADD CALLDATALOAD MOD PUSH2 0x1900 MSTORE DUP2 PUSH2 0x640 DUP3 ADD CALLDATALOAD MOD PUSH2 0x1920 MSTORE DUP2 PUSH2 0x660 DUP3 ADD CALLDATALOAD MOD PUSH2 0x1940 MSTORE DUP2 PUSH2 0x680 DUP3 ADD CALLDATALOAD MOD PUSH2 0x19E0 MSTORE DUP2 PUSH2 0x6A0 DUP3 ADD CALLDATALOAD MOD PUSH2 0x2000 MSTORE DUP2 PUSH2 0x6C0 DUP3 ADD CALLDATALOAD MOD PUSH2 0x2020 MSTORE DUP2 PUSH2 0x6E0 DUP3 ADD CALLDATALOAD MOD PUSH2 0x2040 MSTORE DUP2 PUSH2 0x700 DUP3 ADD CALLDATALOAD MOD PUSH2 0x2060 MSTORE DUP2 PUSH2 0x720 DUP3 ADD CALLDATALOAD MOD PUSH2 0x2080 MSTORE DUP2 PUSH2 0x740 DUP3 ADD CALLDATALOAD MOD PUSH2 0x20A0 MSTORE DUP2 PUSH2 0x760 DUP3 ADD CALLDATALOAD MOD PUSH2 0x20C0 MSTORE DUP2 PUSH2 0x780 DUP3 ADD CALLDATALOAD MOD PUSH2 0x20E0 MSTORE DUP2 PUSH2 0x7A0 DUP3 ADD CALLDATALOAD MOD PUSH2 0x2100 MSTORE DUP2 PUSH2 0x7C0 DUP3 ADD CALLDATALOAD MOD PUSH2 0x2120 MSTORE DUP3 PUSH2 0x7E0 DUP3 ADD CALLDATALOAD MOD PUSH2 0x2320 MSTORE DUP3 PUSH2 0x800 DUP3 ADD CALLDATALOAD MOD PUSH2 0x2300 MSTORE DUP3 PUSH2 0x820 DUP3 ADD CALLDATALOAD MOD PUSH2 0x2360 MSTORE DUP3 PUSH2 0x840 DUP3 ADD CALLDATALOAD MOD PUSH2 0x2340 MSTORE POP PUSH2 0x9C0 MLOAD ISZERO PUSH2 0xD14 JUMPI PUSH1 0x24 DUP1 CALLDATALOAD ADD DUP1 PUSH2 0x9E0 MLOAD PUSH1 0x5 SHL ADD SWAP1 POP DUP1 CALLDATALOAD PUSH1 0x20 DUP3 ADD CALLDATALOAD PUSH1 0x44 SHL DUP2 ADD SWAP1 POP PUSH1 0x40 DUP3 ADD CALLDATALOAD PUSH1 0x88 SHL DUP2 ADD SWAP1 POP PUSH1 0x60 DUP3 ADD CALLDATALOAD PUSH1 0xCC SHL DUP2 ADD SWAP1 POP PUSH1 0x80 DUP3 ADD CALLDATALOAD PUSH1 0xA0 DUP4 ADD CALLDATALOAD PUSH1 0x44 SHL DUP2 ADD SWAP1 POP PUSH1 0xC0 DUP4 ADD CALLDATALOAD PUSH1 0x88 SHL DUP2 ADD SWAP1 POP PUSH1 0xE0 DUP4 ADD CALLDATALOAD PUSH1 0xCC SHL DUP2 ADD SWAP1 POP PUSH2 0x100 DUP4 ADD CALLDATALOAD PUSH2 0x120 DUP5 ADD CALLDATALOAD PUSH1 0x44 SHL DUP2 ADD SWAP1 POP PUSH2 0x140 DUP5 ADD CALLDATALOAD PUSH1 0x88 SHL DUP2 ADD SWAP1 POP PUSH2 0x160 DUP5 ADD CALLDATALOAD PUSH1 0xCC SHL DUP2 ADD SWAP1 POP PUSH2 0x180 DUP5 ADD CALLDATALOAD PUSH2 0x1A0 DUP6 ADD CALLDATALOAD PUSH1 0x44 SHL DUP2 ADD SWAP1 POP PUSH2 0x1C0 DUP6 ADD CALLDATALOAD PUSH1 0x88 SHL DUP2 ADD SWAP1 POP PUSH2 0x1E0 DUP6 ADD CALLDATALOAD PUSH1 0xCC SHL DUP2 ADD SWAP1 POP DUP4 PUSH2 0x3400 MSTORE DUP3 PUSH2 0x3420 MSTORE DUP2 PUSH2 0x3440 MSTORE DUP1 PUSH2 0x3460 MSTORE DUP7 DUP2 LT DUP8 DUP5 LT AND DUP8 DUP4 LT DUP9 DUP7 LT AND AND PUSH2 0xD0E JUMPI PUSH32 0xEBA9F4A600000000000000000000000000000000000000000000000000000000 PUSH0 MSTORE PUSH1 0x4 PUSH0 REVERT JUMPDEST POP POP POP POP POP JUMPDEST PUSH2 0x380 MLOAD PUSH1 0xE0 SHL PUSH0 MSTORE PUSH2 0x3A0 MLOAD PUSH1 0xE0 SHL PUSH1 0x4 MSTORE PUSH1 0x8 PUSH0 KECCAK256 DUP1 PUSH2 0x3480 MSTORE PUSH1 0x24 DUP1 CALLDATALOAD ADD PUSH1 0x20 PUSH2 0x3A0 MLOAD MUL DUP1 DUP3 PUSH1 0x20 PUSH2 0x3480 ADD CALLDATACOPY PUSH1 0x4 CALLDATALOAD PUSH1 0x24 ADD SWAP2 POP PUSH1 0xC0 DUP3 PUSH2 0x34A0 DUP4 ADD CALLDATACOPY PUSH1 0xE0 ADD PUSH2 0x3480 KECCAK256 DUP4 DUP2 MOD PUSH2 0x2660 DUP2 SWAP1 MSTORE SWAP1 SWAP3 POP SWAP1 POP DUP3 DUP2 DUP1 MULMOD PUSH2 0x2680 MSTORE DUP3 DUP2 PUSH2 0x2680 MLOAD MULMOD PUSH2 0x26A0 MSTORE POP DUP1 PUSH0 MSTORE PUSH2 0x12E0 MLOAD PUSH1 0x20 MSTORE PUSH2 0x12C0 MLOAD PUSH1 0x40 MSTORE PUSH2 0x1320 MLOAD PUSH1 0x60 MSTORE PUSH2 0x1300 MLOAD PUSH1 0x80 MSTORE PUSH1 0xA0 PUSH0 KECCAK256 SWAP1 POP DUP2 DUP2 MOD PUSH2 0x2600 MSTORE DUP1 PUSH0 MSTORE PUSH1 0x1 PUSH1 0x20 MSTORE8 POP PUSH1 0x21 PUSH0 SWAP1 DUP2 KECCAK256 DUP3 DUP2 MOD PUSH2 0x2620 MSTORE DUP2 MSTORE PUSH2 0x1360 MLOAD PUSH1 0x20 MSTORE PUSH2 0x1340 MLOAD PUSH1 0x40 MSTORE PUSH2 0x13A0 MLOAD PUSH1 0x60 MSTORE PUSH2 0x1380 MLOAD PUSH1 0x80 MSTORE PUSH1 0xA0 SWAP1 KECCAK256 DUP2 DUP2 MOD PUSH2 0x2640 DUP2 SWAP1 MSTORE DUP3 DUP2 DUP1 MULMOD PUSH2 0x3320 MSTORE DUP3 DUP2 PUSH2 0x3320 MLOAD MULMOD PUSH2 0x3340 MSTORE DUP3 DUP2 PUSH2 0x3340 MLOAD MULMOD PUSH2 0x3360 MSTORE DUP1 PUSH2 0x3380 MSTORE POP DUP1 PUSH0 MSTORE PUSH2 0x13E0 MLOAD PUSH1 0x20 MSTORE PUSH2 0x13C0 MLOAD PUSH1 0x40 MSTORE PUSH2 0x1420 MLOAD PUSH1 0x60 MSTORE PUSH2 0x1400 MLOAD PUSH1 0x80 MSTORE PUSH2 0x1460 MLOAD PUSH1 0xA0 MSTORE PUSH2 0x1440 MLOAD PUSH1 0xC0 MSTORE PUSH2 0x14A0 MLOAD PUSH1 0xE0 MSTORE PUSH2 0x1480 MLOAD PUSH2 0x100 MSTORE PUSH2 0x120 PUSH0 KECCAK256 SWAP1 POP DUP2 DUP2 MOD PUSH2 0x26C0 MSTORE DUP1 PUSH2 0x26E0 MSTORE POP PUSH2 0x2600 MLOAD PUSH2 0x2620 MLOAD PUSH2 0x3C0 MLOAD PUSH1 0x1 DUP1 DUP6 PUSH1 0x1 PUSH1 0x24 DUP1 CALLDATALOAD ADD PUSH1 0x20 PUSH2 0x3A0 MLOAD MUL DUP2 ADD DUP4 PUSH1 0x5 DUP11 MULMOD DUP5 PUSH1 0xC DUP12 MULMOD SWAP10 POP JUMPDEST DUP2 DUP4 LT ISZERO PUSH2 0xECC JUMPI DUP3 CALLDATALOAD DUP6 DUP2 LT DUP6 AND SWAP5 POP DUP6 DUP11 DUP3 ADDMOD SWAP1 POP DUP6 DUP2 DUP4 ADD DUP10 MULMOD SWAP8 POP DUP6 DUP2 DUP13 ADD DUP9 MULMOD SWAP7 POP POP DUP5 DUP9 DUP3 MULMOD SWAP1 POP DUP5 DUP9 DUP12 MULMOD SWAP10 POP PUSH1 0x20 DUP4 ADD SWAP3 POP PUSH2 0xE8D JUMP JUMPDEST POP POP POP DUP1 PUSH2 0xEFC JUMPI PUSH32 0x374A972F00000000000000000000000000000000000000000000000000000000 PUSH0 MSTORE PUSH1 0x4 PUSH0 REVERT JUMPDEST POP POP DUP2 PUSH2 0x3000 MSTORE DUP1 PUSH2 0x3020 MSTORE POP POP POP POP POP DUP1 DUP2 PUSH1 0x1 PUSH2 0x2600 MLOAD ADDMOD PUSH2 0x2620 MLOAD MULMOD DUP1 PUSH2 0x380 MLOAD PUSH1 0x1 JUMPDEST DUP2 DUP2 LT ISZERO PUSH2 0xF38 JUMPI DUP5 DUP4 DUP5 MULMOD SWAP3 POP DUP1 ADD PUSH2 0xF23 JUMP JUMPDEST POP POP PUSH2 0x3100 MSTORE DUP2 DUP2 DUP1 MULMOD SWAP1 POP DUP2 DUP2 DUP3 MULMOD PUSH2 0x3120 MSTORE POP PUSH2 0x26C0 MLOAD PUSH2 0x380 MLOAD DUP2 SWAP1 PUSH1 0x1 JUMPDEST DUP2 DUP2 LT ISZERO PUSH2 0xF6F JUMPI DUP5 DUP4 DUP5 MULMOD SWAP3 POP DUP1 ADD PUSH2 0xF5A JUMP JUMPDEST POP POP DUP1 PUSH2 0x3040 MSTORE DUP3 PUSH1 0x1 DUP5 SUB DUP3 ADDMOD SWAP1 POP PUSH2 0x3300 MLOAD DUP1 DUP5 SUB PUSH2 0x3E0 MLOAD DUP6 DUP3 DUP7 ADDMOD DUP7 DUP5 DUP5 MULMOD SWAP3 POP DUP7 DUP8 DUP5 DUP9 ADDMOD DUP3 MULMOD SWAP1 POP DUP7 DUP5 DUP5 MULMOD SWAP3 POP DUP7 DUP8 DUP5 DUP9 ADDMOD DUP3 MULMOD SWAP1 POP DUP7 DUP8 DUP9 DUP7 DUP7 MULMOD DUP9 ADDMOD DUP3 MULMOD SWAP1 POP PUSH2 0x3C0 MLOAD SWAP3 POP DUP7 DUP3 DUP7 MULMOD SWAP2 POP DUP7 PUSH1 0x1 DUP9 SUB DUP8 ADDMOD DUP8 DUP5 DUP6 MULMOD SWAP5 POP DUP8 PUSH1 0x1 DUP10 SUB DUP10 DUP10 DUP12 DUP9 DUP14 DUP12 DUP13 MULMOD MULMOD MULMOD ADDMOD SWAP7 POP PUSH2 0x3020 MLOAD SWAP5 POP DUP5 SWAP4 POP DUP8 DUP3 DUP7 MULMOD SWAP5 POP DUP5 DUP9 DUP8 DUP8 MULMOD SWAP6 POP DUP6 DUP10 DUP4 DUP9 MULMOD SWAP7 POP DUP7 DUP11 PUSH2 0x3120 MLOAD DUP10 MULMOD SWAP8 POP DUP8 PUSH1 0x20 PUSH0 MSTORE PUSH1 0x20 DUP1 MSTORE PUSH1 0x20 PUSH1 0x40 MSTORE DUP12 DUP12 DUP11 MULMOD PUSH1 0x60 MSTORE PUSH1 0x2 DUP13 SUB PUSH1 0x80 MSTORE DUP12 PUSH1 0xA0 MSTORE PUSH1 0x20 PUSH0 PUSH1 0xC0 PUSH0 PUSH1 0x5 GAS STATICCALL PUSH2 0x1060 JUMPI PUSH32 0xF894A7BC00000000000000000000000000000000000000000000000000000000 PUSH0 MSTORE PUSH1 0x4 PUSH0 REVERT JUMPDEST PUSH0 MLOAD SWAP9 POP DUP12 DUP2 DUP11 MULMOD SWAP1 POP DUP12 DUP12 DUP11 MULMOD SWAP9 POP DUP12 DUP3 DUP11 MULMOD SWAP2 POP DUP12 PUSH2 0x3120 MLOAD DUP11 MULMOD SWAP9 POP DUP12 DUP4 DUP11 MULMOD SWAP3 POP DUP12 DUP6 DUP11 MULMOD SWAP9 POP DUP12 DUP5 DUP11 MULMOD SWAP4 POP DUP12 DUP11 DUP11 MULMOD SWAP9 POP DUP12 DUP9 DUP11 MULMOD SWAP8 POP DUP12 DUP7 DUP11 MULMOD SWAP9 POP DUP12 PUSH2 0x3020 MLOAD DUP14 DUP12 DUP13 MULMOD MULMOD SWAP9 POP DUP12 DUP10 PUSH2 0x3000 MLOAD MULMOD PUSH2 0x3060 MSTORE DUP12 DUP9 DUP12 MULMOD PUSH2 0x3080 MSTORE DUP12 DUP5 DUP8 MULMOD PUSH2 0x3680 MSTORE DUP12 DUP4 DUP9 MULMOD PUSH2 0x30A0 MSTORE DUP12 DUP3 PUSH2 0x3100 MLOAD MULMOD PUSH2 0x3140 MSTORE DUP12 DUP2 DUP9 MULMOD PUSH2 0x30C0 MSTORE POP POP POP POP POP POP POP POP POP POP POP PUSH2 0x2640 MLOAD POP PUSH2 0x2600 MLOAD PUSH2 0x2620 MLOAD DUP3 DUP4 PUSH2 0x1900 MLOAD DUP5 MULMOD DUP3 PUSH2 0x1620 MLOAD ADD ADD DUP5 PUSH2 0x18E0 MLOAD DUP6 MULMOD DUP4 PUSH2 0x1600 MLOAD ADD ADD MULMOD DUP4 DUP5 PUSH2 0x1940 MLOAD DUP6 MULMOD DUP4 PUSH2 0x1660 MLOAD ADD ADD DUP6 PUSH2 0x1920 MLOAD DUP7 MULMOD DUP5 PUSH2 0x1640 MLOAD ADD ADD MULMOD DUP5 DUP6 DUP7 DUP4 DUP6 MULMOD PUSH2 0x16A0 MLOAD MULMOD PUSH2 0x3380 MLOAD MULMOD DUP6 DUP7 PUSH2 0x1980 MLOAD DUP8 MULMOD DUP6 PUSH2 0x1620 MLOAD ADD ADD DUP8 PUSH2 0x1960 MLOAD DUP9 MULMOD DUP7 PUSH2 0x1600 MLOAD ADD ADD MULMOD SWAP3 POP DUP6 DUP7 PUSH2 0x19C0 MLOAD DUP8 MULMOD DUP6 PUSH2 0x1660 MLOAD ADD ADD DUP8 PUSH2 0x19A0 MLOAD DUP9 MULMOD DUP7 PUSH2 0x1640 MLOAD ADD ADD MULMOD SWAP2 POP DUP6 DUP7 DUP8 DUP9 DUP6 DUP8 MULMOD PUSH2 0x2080 MLOAD MULMOD PUSH2 0x3380 MLOAD MULMOD DUP8 SUB DUP3 ADDMOD SWAP1 POP DUP6 PUSH2 0x2640 MLOAD PUSH2 0x3380 MLOAD MULMOD PUSH2 0x3380 MSTORE DUP6 DUP7 DUP8 DUP9 PUSH2 0x3060 MLOAD DUP11 SUB PUSH2 0x2080 MLOAD ADDMOD PUSH2 0x30C0 MLOAD MULMOD PUSH2 0x3380 MLOAD MULMOD DUP3 ADDMOD SWAP1 POP DUP6 PUSH2 0x2640 MLOAD PUSH2 0x3380 MLOAD MULMOD PUSH2 0x3380 MSTORE DUP6 DUP7 DUP8 DUP9 PUSH1 0x1 DUP11 SUB PUSH2 0x16A0 MLOAD ADDMOD PUSH2 0x30A0 MLOAD MULMOD PUSH2 0x3380 MLOAD MULMOD DUP3 ADDMOD PUSH2 0x3500 MSTORE POP POP POP POP POP DUP1 PUSH2 0x2640 MLOAD PUSH2 0x3380 MLOAD MULMOD PUSH2 0x3380 MSTORE DUP1 PUSH2 0x1720 MLOAD PUSH2 0x2660 MLOAD MULMOD DUP2 DUP3 DUP4 PUSH2 0x2020 MLOAD PUSH2 0x1780 MLOAD MULMOD PUSH2 0x1640 MLOAD ADDMOD DUP3 ADDMOD SWAP1 POP DUP2 PUSH2 0x2660 MLOAD DUP3 MULMOD SWAP1 POP DUP2 DUP3 DUP4 PUSH2 0x2000 MLOAD PUSH2 0x1760 MLOAD MULMOD PUSH2 0x1620 MLOAD ADDMOD DUP3 ADDMOD SWAP1 POP DUP2 PUSH2 0x2660 MLOAD DUP3 MULMOD SWAP1 POP DUP2 DUP3 DUP4 PUSH2 0x19E0 MLOAD PUSH2 0x1700 MLOAD MULMOD PUSH2 0x1600 MLOAD ADDMOD DUP3 ADDMOD SWAP1 POP DUP2 PUSH2 0x1840 MLOAD DUP4 DUP5 PUSH2 0x2660 MLOAD PUSH2 0x1860 MLOAD MULMOD DUP6 DUP7 PUSH2 0x2680 MLOAD PUSH2 0x1880 MLOAD MULMOD DUP8 PUSH2 0x26A0 MLOAD PUSH2 0x18A0 MLOAD MULMOD ADDMOD ADDMOD ADDMOD DUP3 PUSH2 0x20C0 MLOAD DUP5 DUP6 PUSH2 0x2660 MLOAD PUSH2 0x20E0 MLOAD MULMOD DUP7 DUP8 PUSH2 0x2680 MLOAD PUSH2 0x2100 MLOAD MULMOD DUP9 PUSH2 0x26A0 MLOAD PUSH2 0x2120 MLOAD MULMOD ADDMOD ADDMOD ADDMOD DUP4 DUP5 PUSH1 0x1 PUSH2 0x2600 MLOAD ADDMOD PUSH2 0x2620 MLOAD MULMOD DUP5 PUSH2 0x2620 MLOAD DUP7 PUSH2 0x18C0 MLOAD DUP8 MULMOD ADDMOD SWAP4 POP DUP5 DUP2 DUP7 DUP8 PUSH2 0x2600 MLOAD DUP7 MULMOD DUP7 ADDMOD ADDMOD SWAP3 POP DUP5 DUP4 DUP6 MULMOD SWAP4 POP DUP5 DUP6 PUSH1 0x1 PUSH2 0x2600 MLOAD ADDMOD DUP6 MULMOD SWAP4 POP DUP5 PUSH2 0x30A0 MLOAD PUSH2 0x2640 MLOAD MULMOD SWAP3 POP DUP5 DUP4 DUP6 ADDMOD SWAP4 POP DUP5 PUSH2 0x16C0 MLOAD DUP6 MULMOD SWAP4 POP DUP5 DUP4 DUP7 SUB DUP6 ADDMOD SWAP4 POP DUP5 DUP2 DUP7 DUP8 PUSH2 0x2600 MLOAD PUSH2 0x2060 MLOAD MULMOD PUSH2 0x1680 MLOAD ADDMOD ADDMOD SWAP3 POP POP POP DUP3 PUSH2 0x30C0 MLOAD PUSH2 0x3320 MLOAD MULMOD DUP4 DUP2 DUP6 SUB DUP4 ADDMOD SWAP2 POP DUP4 PUSH2 0x20A0 MLOAD DUP4 MULMOD SWAP2 POP DUP4 DUP5 PUSH2 0x3140 MLOAD DUP4 MULMOD DUP4 ADDMOD SWAP2 POP POP DUP3 PUSH2 0x3380 MLOAD DUP5 DUP4 DUP7 SUB DUP6 ADDMOD MULMOD PUSH2 0x3520 MSTORE POP POP DUP1 PUSH2 0x3340 MLOAD PUSH2 0x3380 MLOAD MULMOD PUSH2 0x3380 MSTORE DUP1 PUSH2 0x16E0 MLOAD PUSH2 0x1600 MLOAD MULMOD DUP2 PUSH2 0x1700 MLOAD PUSH2 0x1620 MLOAD MULMOD DUP3 PUSH2 0x1720 MLOAD PUSH2 0x1640 MLOAD MULMOD DUP4 PUSH2 0x1740 MLOAD PUSH2 0x1660 MLOAD MULMOD DUP5 PUSH32 0x183227397098D014DC2822DB40C0AC2E9419F4243CDCB848A1F0FAC9F8000000 DUP7 DUP8 PUSH1 0x3 DUP10 SUB PUSH2 0x17A0 MLOAD ADDMOD DUP9 PUSH2 0x1760 MLOAD DUP11 PUSH2 0x1620 MLOAD PUSH2 0x1600 MLOAD MULMOD MULMOD MULMOD MULMOD DUP6 DUP7 DUP8 DUP9 DUP10 DUP6 DUP11 ADDMOD DUP9 ADDMOD DUP7 ADDMOD DUP5 ADDMOD PUSH2 0x1780 MLOAD ADDMOD SWAP5 POP POP POP POP POP DUP2 DUP3 DUP4 DUP5 DUP6 PUSH2 0x1660 MLOAD PUSH2 0x1600 MLOAD ADDMOD PUSH2 0x19E0 MLOAD DUP8 SUB ADDMOD PUSH2 0x1760 MLOAD ADDMOD DUP5 PUSH1 0x2 DUP7 SUB PUSH2 0x17A0 MLOAD ADDMOD MULMOD PUSH2 0x2640 MLOAD MULMOD DUP3 DUP4 DUP5 DUP6 DUP7 DUP6 PUSH2 0x2040 MLOAD ADDMOD DUP8 PUSH1 0x1 DUP10 SUB PUSH2 0x17A0 MLOAD ADDMOD MULMOD DUP6 ADDMOD PUSH2 0x17A0 MLOAD MULMOD PUSH2 0x3380 MLOAD MULMOD PUSH2 0x3540 MSTORE POP POP DUP1 PUSH2 0x3320 MLOAD PUSH2 0x3380 MLOAD MULMOD PUSH2 0x3380 MSTORE PUSH1 0x2 DUP2 SUB PUSH1 0x3 DUP3 SUB DUP3 PUSH2 0x1600 MLOAD DUP5 SUB PUSH2 0x1620 MLOAD ADDMOD DUP4 PUSH2 0x1620 MLOAD DUP6 SUB PUSH2 0x1640 MLOAD ADDMOD DUP5 PUSH2 0x1640 MLOAD DUP7 SUB PUSH2 0x1660 MLOAD ADDMOD DUP6 PUSH2 0x1660 MLOAD DUP8 SUB PUSH2 0x19E0 MLOAD ADDMOD DUP7 PUSH2 0x3380 MLOAD DUP9 DUP10 DUP9 DUP9 ADDMOD DUP11 DUP12 DUP12 DUP11 ADDMOD DUP13 DUP11 DUP15 SUB DUP15 DUP13 DUP14 MULMOD ADDMOD MULMOD MULMOD MULMOD SWAP4 POP DUP7 DUP8 DUP9 PUSH2 0x2640 MLOAD PUSH2 0x3380 MLOAD MULMOD DUP10 DUP11 DUP10 DUP9 ADDMOD DUP12 DUP13 DUP13 DUP11 ADDMOD DUP14 DUP11 DUP16 SUB DUP16 DUP13 DUP14 MULMOD ADDMOD MULMOD MULMOD MULMOD DUP6 ADDMOD SWAP4 POP DUP7 DUP8 DUP9 PUSH2 0x3320 MLOAD PUSH2 0x3380 MLOAD MULMOD DUP10 DUP11 DUP10 DUP8 ADDMOD DUP12 DUP13 DUP13 DUP10 ADDMOD DUP14 DUP10 DUP16 SUB DUP16 DUP12 DUP13 MULMOD ADDMOD MULMOD MULMOD MULMOD DUP6 ADDMOD SWAP4 POP DUP7 DUP8 DUP9 PUSH2 0x3340 MLOAD PUSH2 0x3380 MLOAD MULMOD DUP10 DUP11 DUP10 DUP7 ADDMOD DUP12 DUP13 DUP13 DUP9 ADDMOD DUP14 DUP9 DUP16 SUB DUP16 DUP11 DUP12 MULMOD ADDMOD MULMOD MULMOD MULMOD DUP6 ADDMOD SWAP4 POP POP POP POP DUP4 PUSH2 0x17C0 MLOAD DUP3 MULMOD PUSH2 0x3560 MSTORE POP POP PUSH2 0x3360 MLOAD PUSH2 0x3380 MLOAD DUP4 SWAP3 POP MULMOD PUSH2 0x3380 MSTORE DUP1 PUSH2 0x1620 MLOAD DUP3 SUB PUSH2 0x19E0 MLOAD ADDMOD DUP2 PUSH2 0x2040 MLOAD PUSH2 0x2040 MLOAD MULMOD DUP3 PUSH2 0x1640 MLOAD PUSH2 0x1640 MLOAD MULMOD DUP4 PUSH2 0x16E0 MLOAD DUP6 PUSH2 0x2040 MLOAD PUSH2 0x1640 MLOAD MULMOD MULMOD DUP5 DUP6 DUP7 DUP4 DUP5 ADDMOD DUP8 DUP6 DUP8 ADDMOD DUP9 SUB ADDMOD DUP7 DUP8 DUP8 DUP9 MULMOD DUP9 DUP10 PUSH2 0x1620 MLOAD PUSH2 0x19E0 MLOAD ADDMOD PUSH2 0x2000 MLOAD ADDMOD MULMOD ADDMOD SWAP3 POP POP POP DUP3 PUSH2 0x3380 MLOAD DUP5 DUP6 PUSH2 0x1760 MLOAD DUP8 SUB PUSH1 0x1 ADDMOD DUP5 MULMOD MULMOD SWAP1 POP DUP3 PUSH2 0x2020 MLOAD PUSH2 0x1640 MLOAD ADDMOD DUP4 PUSH2 0x1640 MLOAD DUP6 SUB DUP6 PUSH2 0x16E0 MLOAD PUSH2 0x2040 MLOAD MULMOD ADDMOD DUP5 DUP6 DUP3 DUP8 PUSH2 0x1620 MLOAD DUP10 SUB PUSH2 0x2000 MLOAD ADDMOD MULMOD DUP7 DUP7 DUP6 MULMOD ADDMOD SWAP4 POP POP POP DUP3 DUP4 PUSH2 0x2640 MLOAD PUSH2 0x3380 MLOAD MULMOD DUP5 DUP6 PUSH2 0x1760 MLOAD DUP8 SUB PUSH1 0x1 ADDMOD DUP6 MULMOD MULMOD SWAP2 POP DUP3 PUSH2 0x17E0 MLOAD DUP5 DUP5 DUP5 ADDMOD MULMOD PUSH2 0x3580 MSTORE POP POP DUP1 PUSH2 0x1620 MLOAD PUSH2 0x1620 MLOAD MULMOD DUP2 PUSH2 0x1640 MLOAD PUSH2 0x1640 MLOAD MULMOD DUP3 PUSH2 0x1620 MLOAD DUP5 PUSH1 0x11 DUP5 ADDMOD MULMOD DUP4 PUSH1 0x4 DUP4 MULMOD SWAP2 POP DUP4 PUSH1 0x9 DUP3 MULMOD SWAP1 POP DUP4 PUSH1 0x3 DUP5 MULMOD SWAP3 POP DUP4 DUP2 DUP6 SUB DUP6 DUP5 DUP8 DUP9 PUSH2 0x1620 MLOAD PUSH2 0x1620 MLOAD ADDMOD PUSH2 0x2000 MLOAD ADDMOD MULMOD ADDMOD SWAP2 POP POP DUP3 DUP4 DUP5 PUSH2 0x2020 MLOAD PUSH2 0x1640 MLOAD ADDMOD DUP6 PUSH2 0x1640 MLOAD PUSH2 0x1640 MLOAD ADDMOD MULMOD DUP5 SUB DUP5 DUP6 PUSH2 0x2000 MLOAD DUP8 SUB PUSH2 0x1620 MLOAD ADDMOD DUP6 MULMOD ADDMOD SWAP2 POP DUP3 PUSH2 0x3380 MLOAD DUP3 MULMOD SWAP1 POP DUP3 DUP4 PUSH2 0x2640 MLOAD PUSH2 0x3380 MLOAD MULMOD DUP4 MULMOD SWAP2 POP DUP3 PUSH2 0x1760 MLOAD DUP3 MULMOD SWAP1 POP DUP3 PUSH2 0x1760 MLOAD DUP4 MULMOD SWAP2 POP DUP3 DUP4 PUSH2 0x17E0 MLOAD DUP6 DUP6 DUP6 ADDMOD MULMOD PUSH2 0x3580 MLOAD ADDMOD PUSH2 0x3580 MSTORE POP POP DUP1 PUSH2 0x3360 MLOAD PUSH2 0x3380 MLOAD MULMOD PUSH2 0x3380 MSTORE DUP1 DUP2 PUSH2 0x1620 MLOAD PUSH2 0x19E0 MLOAD MULMOD DUP3 PUSH2 0x2000 MLOAD PUSH2 0x1600 MLOAD MULMOD ADDMOD DUP2 PUSH2 0x2020 MLOAD DUP4 SUB DUP4 DUP5 PUSH2 0x1640 MLOAD PUSH2 0x1620 MLOAD MULMOD DUP6 PUSH2 0x1660 MLOAD PUSH2 0x1600 MLOAD MULMOD ADDMOD ADDMOD DUP3 PUSH9 0x100000000000000000 DUP3 MULMOD SWAP1 POP DUP3 PUSH2 0x2040 MLOAD DUP5 SUB DUP3 ADDMOD SWAP1 POP DUP3 DUP3 DUP3 ADDMOD SWAP1 POP DUP3 PUSH2 0x1740 MLOAD DUP3 MULMOD SWAP1 POP DUP3 PUSH9 0x100000000000000000 DUP4 MULMOD SWAP2 POP DUP3 DUP4 PUSH2 0x2000 MLOAD PUSH2 0x19E0 MLOAD MULMOD DUP4 ADDMOD SWAP2 POP DUP3 PUSH2 0x1720 MLOAD DUP5 DUP6 PUSH2 0x1660 MLOAD PUSH2 0x1640 MLOAD ADDMOD DUP7 SUB DUP6 ADDMOD MULMOD DUP4 PUSH2 0x1760 MLOAD DUP6 DUP7 PUSH2 0x2040 MLOAD PUSH2 0x2020 MLOAD ADDMOD DUP8 SUB DUP8 PUSH2 0x1660 MLOAD DUP9 ADDMOD ADDMOD MULMOD SWAP3 POP DUP4 PUSH2 0x1700 MLOAD DUP6 DUP6 DUP8 DUP7 DUP7 ADDMOD ADDMOD MULMOD PUSH2 0x35C0 MSTORE POP POP PUSH2 0x2000 MLOAD DUP3 SWAP2 POP PUSH2 0x4000 SWAP1 MULMOD DUP2 PUSH2 0x19E0 MLOAD DUP3 ADDMOD SWAP1 POP DUP2 PUSH2 0x4000 DUP3 MULMOD SWAP1 POP DUP2 PUSH2 0x1640 MLOAD DUP3 ADDMOD SWAP1 POP DUP2 PUSH2 0x4000 DUP3 MULMOD SWAP1 POP DUP2 PUSH2 0x1620 MLOAD DUP3 ADDMOD SWAP1 POP DUP2 PUSH2 0x4000 DUP3 MULMOD SWAP1 POP DUP2 PUSH2 0x1600 MLOAD DUP3 ADDMOD SWAP1 POP DUP2 PUSH2 0x1660 MLOAD DUP4 SUB DUP3 ADDMOD SWAP1 POP DUP2 PUSH2 0x1740 MLOAD DUP3 MULMOD SWAP1 POP DUP2 PUSH2 0x4000 PUSH2 0x2020 MLOAD MULMOD DUP3 PUSH2 0x2000 MLOAD DUP3 ADDMOD SWAP1 POP DUP3 PUSH2 0x4000 DUP3 MULMOD SWAP1 POP DUP3 PUSH2 0x19E0 MLOAD DUP3 ADDMOD SWAP1 POP DUP3 PUSH2 0x4000 DUP3 MULMOD SWAP1 POP DUP3 PUSH2 0x1660 MLOAD DUP3 ADDMOD SWAP1 POP DUP3 PUSH2 0x4000 DUP3 MULMOD SWAP1 POP DUP3 PUSH2 0x1640 MLOAD DUP3 ADDMOD SWAP1 POP DUP3 PUSH2 0x2040 MLOAD DUP5 SUB DUP3 ADDMOD SWAP1 POP DUP3 PUSH2 0x1760 MLOAD DUP3 MULMOD SWAP1 POP DUP3 PUSH2 0x1720 MLOAD DUP5 DUP4 DUP6 ADDMOD MULMOD PUSH2 0x35E0 MSTORE POP POP DUP1 PUSH2 0x2660 MLOAD PUSH2 0x1640 MLOAD MULMOD DUP2 PUSH2 0x1620 MLOAD DUP3 ADDMOD SWAP1 POP DUP2 PUSH2 0x2660 MLOAD DUP3 MULMOD SWAP1 POP DUP2 PUSH2 0x1600 MLOAD DUP3 ADDMOD SWAP1 POP DUP2 PUSH2 0x2660 MLOAD DUP3 MULMOD SWAP1 POP DUP2 PUSH2 0x1780 MLOAD DUP3 ADDMOD SWAP1 POP DUP1 DUP3 PUSH2 0x1660 MLOAD DUP5 SUB DUP4 ADDMOD SWAP2 POP DUP2 PUSH2 0x3640 MSTORE DUP3 PUSH2 0x1600 MLOAD DUP5 SUB PUSH2 0x19E0 MLOAD ADDMOD DUP4 PUSH2 0x1660 MLOAD DUP6 SUB PUSH2 0x2040 MLOAD ADDMOD DUP5 DUP6 PUSH1 0x1 DUP8 SUB DUP5 ADDMOD DUP4 MULMOD DUP6 DUP7 DUP5 DUP9 SUB PUSH1 0x1 ADDMOD DUP4 MULMOD SWAP2 POP DUP6 DUP6 DUP8 PUSH2 0x2640 MLOAD DUP10 DUP6 DUP12 PUSH2 0x2640 MLOAD DUP10 MULMOD ADDMOD MULMOD ADDMOD PUSH2 0x3620 MSTORE DUP6 PUSH2 0x2660 MLOAD PUSH2 0x2020 MLOAD MULMOD SWAP5 POP DUP6 PUSH2 0x2000 MLOAD DUP7 ADDMOD SWAP5 POP DUP6 PUSH2 0x2660 MLOAD DUP7 MULMOD SWAP5 POP DUP6 PUSH2 0x19E0 MLOAD DUP7 ADDMOD SWAP5 POP DUP6 PUSH2 0x2660 MLOAD DUP7 MULMOD SWAP5 POP DUP6 DUP6 DUP8 SUB PUSH2 0x2040 MLOAD ADDMOD SWAP5 POP DUP6 PUSH2 0x1640 MLOAD DUP8 SUB PUSH2 0x2020 MLOAD ADDMOD SWAP2 POP DUP6 DUP7 DUP8 DUP8 DUP10 SUB PUSH1 0x1 ADDMOD DUP5 MULMOD DUP8 DUP6 DUP10 SUB PUSH1 0x1 ADDMOD MULMOD SWAP2 POP DUP6 DUP5 DUP8 SUB PUSH2 0x1660 MLOAD ADDMOD DUP7 DUP8 PUSH1 0x1 DUP10 SUB DUP4 ADDMOD DUP3 MULMOD SWAP1 POP DUP7 DUP8 PUSH1 0x1 DUP10 SUB DUP9 ADDMOD DUP8 MULMOD SWAP6 POP DUP7 PUSH2 0x2640 MLOAD DUP5 MULMOD SWAP3 POP DUP7 DUP3 DUP5 ADDMOD SWAP3 POP DUP7 PUSH2 0x2640 MLOAD DUP5 MULMOD SWAP3 POP DUP7 DUP7 DUP5 ADDMOD SWAP3 POP DUP7 PUSH2 0x2640 MLOAD DUP5 MULMOD SWAP3 POP DUP7 DUP2 DUP5 ADDMOD SWAP3 POP POP DUP2 PUSH2 0x3600 MSTORE POP POP DUP4 PUSH2 0x1620 MLOAD DUP6 SUB PUSH2 0x2000 MLOAD ADDMOD SWAP3 POP DUP4 PUSH2 0x1640 MLOAD DUP6 SUB DUP6 DUP7 DUP5 DUP9 SUB PUSH1 0x1 ADDMOD DUP7 MULMOD ADDMOD SWAP3 POP DUP4 PUSH2 0x1700 MLOAD PUSH2 0x3620 MLOAD MULMOD SWAP2 POP DUP4 DUP5 PUSH2 0x1740 MLOAD DUP6 MULMOD DUP4 ADDMOD SWAP2 POP DUP4 DUP5 PUSH2 0x1760 MLOAD PUSH2 0x3640 MLOAD MULMOD DUP4 ADDMOD SWAP2 POP DUP4 PUSH2 0x16E0 MLOAD DUP4 MULMOD SWAP2 POP DUP4 DUP5 PUSH2 0x17A0 MLOAD PUSH2 0x3600 MLOAD MULMOD DUP4 ADDMOD SWAP2 POP DUP4 PUSH2 0x35C0 MLOAD DUP4 ADDMOD SWAP3 POP DUP4 PUSH2 0x35E0 MLOAD DUP5 ADDMOD SWAP3 POP DUP4 PUSH2 0x1800 MLOAD DUP5 MULMOD SWAP3 POP DUP4 PUSH2 0x3380 MLOAD DUP5 MULMOD SWAP3 POP DUP3 PUSH2 0x35A0 MSTORE DUP4 PUSH2 0x3340 MLOAD PUSH2 0x3380 MLOAD MULMOD PUSH2 0x3380 MSTORE POP POP POP DUP1 PUSH2 0x3680 MLOAD DUP3 PUSH2 0x35A0 MLOAD DUP5 PUSH2 0x3580 MLOAD DUP7 PUSH2 0x3560 MLOAD DUP9 PUSH2 0x3540 MLOAD DUP11 PUSH2 0x3520 MLOAD PUSH2 0x3500 MLOAD ADDMOD ADDMOD ADDMOD ADDMOD ADDMOD MULMOD PUSH2 0x3660 DUP2 SWAP1 MSTORE PUSH2 0x26E0 MLOAD PUSH2 0x36A0 DUP2 SWAP1 MSTORE PUSH2 0x36C0 SWAP2 SWAP1 SWAP2 MSTORE PUSH2 0x2E4 PUSH1 0x4 CALLDATALOAD ADD PUSH2 0x520 DUP2 PUSH2 0x36E0 CALLDATACOPY POP POP PUSH2 0x560 PUSH2 0x36A0 KECCAK256 DUP2 DUP2 MOD PUSH2 0x2700 MSTORE PUSH0 DUP2 SWAP1 MSTORE PUSH1 0x1 PUSH1 0x20 MSTORE8 DUP2 PUSH1 0x21 PUSH0 KECCAK256 MOD PUSH2 0x2720 MSTORE PUSH1 0x2 PUSH1 0x20 MSTORE8 DUP2 PUSH1 0x21 PUSH0 KECCAK256 MOD PUSH2 0x2740 MSTORE PUSH1 0x3 PUSH1 0x20 MSTORE8 DUP2 PUSH1 0x21 PUSH0 KECCAK256 MOD PUSH2 0x2760 MSTORE PUSH1 0x4 PUSH1 0x20 MSTORE8 DUP2 PUSH1 0x21 PUSH0 KECCAK256 MOD PUSH2 0x2780 MSTORE PUSH1 0x5 PUSH1 0x20 MSTORE8 DUP2 PUSH1 0x21 PUSH0 KECCAK256 MOD PUSH2 0x27A0 MSTORE PUSH1 0x6 PUSH1 0x20 MSTORE8 DUP2 PUSH1 0x21 PUSH0 KECCAK256 MOD PUSH2 0x27C0 MSTORE PUSH1 0x7 PUSH1 0x20 MSTORE8 DUP2 PUSH1 0x21 PUSH0 KECCAK256 MOD PUSH2 0x27E0 MSTORE PUSH1 0x8 PUSH1 0x20 MSTORE8 DUP2 PUSH1 0x21 PUSH0 KECCAK256 MOD PUSH2 0x2800 MSTORE PUSH1 0x9 PUSH1 0x20 MSTORE8 DUP2 PUSH1 0x21 PUSH0 KECCAK256 MOD PUSH2 0x2820 MSTORE PUSH1 0xA PUSH1 0x20 MSTORE8 DUP2 PUSH1 0x21 PUSH0 KECCAK256 MOD PUSH2 0x2840 MSTORE PUSH1 0xB PUSH1 0x20 MSTORE8 DUP2 PUSH1 0x21 PUSH0 KECCAK256 MOD PUSH2 0x2860 MSTORE PUSH1 0xC PUSH1 0x20 MSTORE8 DUP2 PUSH1 0x21 PUSH0 KECCAK256 MOD PUSH2 0x2880 MSTORE PUSH1 0xD PUSH1 0x20 MSTORE8 DUP2 PUSH1 0x21 PUSH0 KECCAK256 MOD PUSH2 0x28A0 MSTORE PUSH1 0xE PUSH1 0x20 MSTORE8 DUP2 PUSH1 0x21 PUSH0 KECCAK256 MOD PUSH2 0x28C0 MSTORE PUSH1 0xF PUSH1 0x20 MSTORE8 DUP2 PUSH1 0x21 PUSH0 KECCAK256 MOD PUSH2 0x28E0 MSTORE PUSH1 0x10 PUSH1 0x20 MSTORE8 DUP2 PUSH1 0x21 PUSH0 KECCAK256 MOD PUSH2 0x2900 MSTORE PUSH1 0x11 PUSH1 0x20 MSTORE8 DUP2 PUSH1 0x21 PUSH0 KECCAK256 MOD PUSH2 0x2920 MSTORE PUSH1 0x12 PUSH1 0x20 MSTORE8 DUP2 PUSH1 0x21 PUSH0 KECCAK256 MOD PUSH2 0x2940 MSTORE PUSH1 0x13 PUSH1 0x20 MSTORE8 DUP2 PUSH1 0x21 PUSH0 KECCAK256 MOD PUSH2 0x2960 MSTORE PUSH1 0x14 PUSH1 0x20 MSTORE8 DUP2 PUSH1 0x21 PUSH0 KECCAK256 MOD PUSH2 0x2980 MSTORE PUSH1 0x15 PUSH1 0x20 MSTORE8 DUP2 PUSH1 0x21 PUSH0 KECCAK256 MOD PUSH2 0x29A0 MSTORE PUSH1 0x16 PUSH1 0x20 MSTORE8 DUP2 PUSH1 0x21 PUSH0 KECCAK256 MOD PUSH2 0x29C0 MSTORE PUSH1 0x17 PUSH1 0x20 MSTORE8 DUP2 PUSH1 0x21 PUSH0 KECCAK256 MOD PUSH2 0x29E0 MSTORE PUSH1 0x18 PUSH1 0x20 MSTORE8 DUP2 PUSH1 0x21 PUSH0 KECCAK256 MOD PUSH2 0x2A00 MSTORE PUSH1 0x19 PUSH1 0x20 MSTORE8 DUP2 PUSH1 0x21 PUSH0 KECCAK256 MOD PUSH2 0x2A20 MSTORE PUSH1 0x1A PUSH1 0x20 MSTORE8 DUP2 PUSH1 0x21 PUSH0 KECCAK256 MOD PUSH2 0x2A40 MSTORE PUSH1 0x1B PUSH1 0x20 MSTORE8 DUP2 PUSH1 0x21 PUSH0 KECCAK256 MOD PUSH2 0x2A60 MSTORE PUSH1 0x1C PUSH1 0x20 MSTORE8 DUP2 PUSH1 0x21 PUSH0 KECCAK256 MOD PUSH2 0x2A80 MSTORE PUSH1 0x1D PUSH1 0x20 MSTORE8 DUP2 PUSH1 0x21 PUSH0 KECCAK256 MOD PUSH2 0x2AA0 MSTORE PUSH1 0x1D PUSH1 0x20 MSTORE8 POP PUSH1 0x21 PUSH0 SWAP1 DUP2 KECCAK256 DUP3 DUP2 MOD PUSH2 0x2AC0 MSTORE DUP2 MSTORE PUSH2 0x2320 MLOAD PUSH1 0x20 MSTORE PUSH2 0x2300 MLOAD PUSH1 0x40 MSTORE PUSH2 0x2360 MLOAD PUSH1 0x60 MSTORE PUSH2 0x2340 MLOAD PUSH1 0x80 MSTORE PUSH1 0xA0 DUP2 KECCAK256 DUP3 SWAP1 MOD PUSH2 0x2B00 MSTORE PUSH2 0x13C0 MLOAD PUSH2 0x13E0 MLOAD DUP5 DUP3 DUP1 MULMOD DUP6 PUSH1 0x3 DUP8 DUP4 DUP7 MULMOD ADDMOD DUP7 DUP4 DUP5 MULMOD EQ PUSH2 0x1CAF JUMPI PUSH4 0x28F6B595 PUSH1 0xE2 SHL PUSH0 MSTORE PUSH1 0x4 PUSH0 REVERT JUMPDEST POP PUSH2 0x3160 SWAP2 SWAP1 SWAP2 MSTORE PUSH2 0x3180 MSTORE PUSH2 0x1400 MLOAD PUSH2 0x1420 MLOAD DUP5 DUP3 DUP1 MULMOD DUP6 PUSH1 0x3 DUP8 DUP4 DUP7 MULMOD ADDMOD DUP7 DUP4 DUP5 MULMOD EQ PUSH2 0x1CE7 JUMPI PUSH4 0x28F6B595 PUSH1 0xE2 SHL PUSH0 MSTORE PUSH1 0x4 PUSH0 REVERT JUMPDEST POP DUP2 PUSH0 MSTORE DUP1 PUSH1 0x20 MSTORE POP POP PUSH2 0x3040 MLOAD PUSH1 0x40 MSTORE PUSH1 0x40 PUSH2 0x31A0 PUSH1 0x60 PUSH0 PUSH1 0x7 GAS STATICCALL SWAP1 POP PUSH1 0x40 PUSH2 0x3160 PUSH1 0x80 PUSH2 0x3160 PUSH1 0x6 GAS STATICCALL DUP2 AND SWAP1 POP PUSH2 0x1440 MLOAD PUSH2 0x1460 MLOAD DUP5 DUP3 DUP4 MULMOD DUP6 PUSH1 0x3 DUP8 DUP4 DUP7 MULMOD ADDMOD DUP7 DUP4 DUP5 MULMOD EQ PUSH2 0x1D44 JUMPI PUSH4 0x28F6B595 PUSH1 0xE2 SHL PUSH0 MSTORE PUSH1 0x4 PUSH0 REVERT JUMPDEST POP PUSH0 SWAP2 SWAP1 SWAP2 MSTORE PUSH1 0x20 MSTORE PUSH2 0x3040 MLOAD DUP3 SWAP1 DUP1 MULMOD PUSH1 0x40 MSTORE PUSH1 0x40 PUSH2 0x31A0 PUSH1 0x60 PUSH0 PUSH1 0x7 GAS STATICCALL AND PUSH1 0x40 PUSH2 0x3160 PUSH1 0x80 DUP2 PUSH1 0x6 GAS STATICCALL DUP2 AND SWAP1 POP PUSH2 0x1480 MLOAD PUSH2 0x14A0 MLOAD DUP5 DUP3 DUP4 MULMOD DUP6 PUSH1 0x3 DUP8 DUP4 DUP7 MULMOD ADDMOD DUP7 DUP4 DUP5 MULMOD EQ PUSH2 0x1DA1 JUMPI PUSH4 0x28F6B595 PUSH1 0xE2 SHL PUSH0 MSTORE PUSH1 0x4 PUSH0 REVERT JUMPDEST POP PUSH0 SWAP2 SWAP1 SWAP2 MSTORE PUSH1 0x20 MSTORE PUSH2 0x3040 MLOAD DUP3 SWAP1 DUP2 DUP2 DUP1 MULMOD MULMOD PUSH1 0x40 MSTORE PUSH1 0x40 PUSH2 0x31A0 PUSH1 0x60 PUSH0 PUSH1 0x7 GAS STATICCALL AND PUSH1 0x40 PUSH2 0x3160 PUSH1 0x80 DUP2 PUSH1 0x6 GAS STATICCALL DUP2 AND SWAP1 POP PUSH2 0x1200 MLOAD PUSH2 0x1220 MLOAD DUP5 DUP3 DUP4 MULMOD DUP6 PUSH1 0x3 DUP8 DUP4 DUP7 MULMOD ADDMOD DUP7 DUP4 DUP5 MULMOD EQ PUSH2 0x1E01 JUMPI PUSH4 0x28F6B595 PUSH1 0xE2 SHL PUSH0 MSTORE PUSH1 0x4 PUSH0 REVERT JUMPDEST POP DUP2 PUSH0 MSTORE DUP1 PUSH1 0x20 MSTORE POP POP DUP2 PUSH2 0x2700 MLOAD DUP4 PUSH1 0x1 PUSH2 0x2B00 MLOAD ADDMOD MULMOD PUSH1 0x40 MSTORE PUSH1 0x40 PUSH2 0x31A0 PUSH1 0x60 PUSH0 PUSH1 0x7 GAS STATICCALL AND PUSH1 0x40 PUSH2 0x3160 PUSH1 0x80 DUP2 PUSH1 0x6 GAS STATICCALL DUP2 AND SWAP1 POP PUSH2 0x1240 MLOAD PUSH2 0x1260 MLOAD DUP5 DUP3 DUP4 MULMOD DUP6 PUSH1 0x3 DUP8 DUP4 DUP7 MULMOD ADDMOD DUP7 DUP4 DUP5 MULMOD EQ PUSH2 0x1E65 JUMPI PUSH4 0x28F6B595 PUSH1 0xE2 SHL PUSH0 MSTORE PUSH1 0x4 PUSH0 REVERT JUMPDEST POP DUP2 PUSH0 MSTORE DUP1 PUSH1 0x20 MSTORE POP POP DUP2 PUSH2 0x2720 MLOAD DUP4 PUSH1 0x1 PUSH2 0x2B00 MLOAD ADDMOD MULMOD PUSH1 0x40 MSTORE PUSH1 0x40 PUSH2 0x31A0 PUSH1 0x60 PUSH0 PUSH1 0x7 GAS STATICCALL AND PUSH1 0x40 PUSH2 0x3160 PUSH1 0x80 DUP2 PUSH1 0x6 GAS STATICCALL DUP2 AND SWAP1 POP PUSH2 0x1280 MLOAD PUSH2 0x12A0 MLOAD DUP5 DUP3 DUP4 MULMOD DUP6 PUSH1 0x3 DUP8 DUP4 DUP7 MULMOD ADDMOD DUP7 DUP4 DUP5 MULMOD EQ PUSH2 0x1EC9 JUMPI PUSH4 0x28F6B595 PUSH1 0xE2 SHL PUSH0 MSTORE PUSH1 0x4 PUSH0 REVERT JUMPDEST POP DUP2 PUSH0 MSTORE DUP1 PUSH1 0x20 MSTORE POP POP DUP2 PUSH2 0x2740 MLOAD DUP4 PUSH1 0x1 PUSH2 0x2B00 MLOAD ADDMOD MULMOD PUSH1 0x40 MSTORE PUSH1 0x40 PUSH2 0x31A0 PUSH1 0x60 PUSH0 PUSH1 0x7 GAS STATICCALL AND PUSH1 0x40 PUSH2 0x3160 PUSH1 0x80 DUP2 PUSH1 0x6 GAS STATICCALL DUP2 AND SWAP1 POP PUSH2 0x12C0 MLOAD PUSH2 0x12E0 MLOAD DUP5 DUP3 DUP4 MULMOD DUP6 PUSH1 0x3 DUP8 DUP4 DUP7 MULMOD ADDMOD DUP7 DUP4 DUP5 MULMOD EQ PUSH2 0x1F2D JUMPI PUSH4 0x28F6B595 PUSH1 0xE2 SHL PUSH0 MSTORE PUSH1 0x4 PUSH0 REVERT JUMPDEST POP DUP2 PUSH0 MSTORE DUP1 PUSH1 0x20 MSTORE POP POP DUP2 PUSH2 0x2760 MLOAD DUP4 PUSH1 0x1 PUSH2 0x2B00 MLOAD ADDMOD MULMOD PUSH1 0x40 MSTORE PUSH1 0x40 PUSH2 0x31A0 PUSH1 0x60 PUSH0 PUSH1 0x7 GAS STATICCALL AND PUSH1 0x40 PUSH2 0x3160 PUSH1 0x80 DUP2 PUSH1 0x6 GAS STATICCALL DUP2 AND SWAP1 POP PUSH2 0x1300 MLOAD PUSH2 0x1320 MLOAD DUP5 DUP3 DUP4 MULMOD DUP6 PUSH1 0x3 DUP8 DUP4 DUP7 MULMOD ADDMOD DUP7 DUP4 DUP5 MULMOD EQ PUSH2 0x1F91 JUMPI PUSH4 0x28F6B595 PUSH1 0xE2 SHL PUSH0 MSTORE PUSH1 0x4 PUSH0 REVERT JUMPDEST POP DUP2 PUSH0 MSTORE DUP1 PUSH1 0x20 MSTORE POP POP DUP2 PUSH2 0x2780 MLOAD DUP4 PUSH1 0x1 PUSH2 0x2B00 MLOAD ADDMOD MULMOD PUSH1 0x40 MSTORE PUSH1 0x40 PUSH2 0x31A0 PUSH1 0x60 PUSH0 PUSH1 0x7 GAS STATICCALL AND PUSH1 0x40 PUSH2 0x3160 PUSH1 0x80 DUP2 PUSH1 0x6 GAS STATICCALL DUP2 AND SWAP1 POP PUSH2 0x1340 MLOAD PUSH2 0x1360 MLOAD DUP5 DUP3 DUP4 MULMOD DUP6 PUSH1 0x3 DUP8 DUP4 DUP7 MULMOD ADDMOD DUP7 DUP4 DUP5 MULMOD EQ PUSH2 0x1FF5 JUMPI PUSH4 0x28F6B595 PUSH1 0xE2 SHL PUSH0 MSTORE PUSH1 0x4 PUSH0 REVERT JUMPDEST POP DUP2 PUSH0 MSTORE DUP1 PUSH1 0x20 MSTORE POP POP DUP2 PUSH2 0x27A0 MLOAD DUP4 PUSH1 0x1 PUSH2 0x2B00 MLOAD ADDMOD MULMOD PUSH1 0x40 MSTORE PUSH1 0x40 PUSH2 0x31A0 PUSH1 0x60 PUSH0 PUSH1 0x7 GAS STATICCALL AND PUSH1 0x40 PUSH2 0x3160 PUSH1 0x80 DUP2 PUSH1 0x6 GAS STATICCALL DUP2 AND SWAP1 POP PUSH2 0x1380 MLOAD PUSH2 0x13A0 MLOAD DUP5 DUP3 DUP4 MULMOD DUP6 PUSH1 0x3 DUP8 DUP4 DUP7 MULMOD ADDMOD DUP7 DUP4 DUP5 MULMOD EQ PUSH2 0x2059 JUMPI PUSH4 0x28F6B595 PUSH1 0xE2 SHL PUSH0 MSTORE PUSH1 0x4 PUSH0 REVERT JUMPDEST POP DUP2 PUSH0 MSTORE DUP1 PUSH1 0x20 MSTORE POP POP DUP2 PUSH2 0x27C0 MLOAD DUP4 PUSH1 0x1 PUSH2 0x2B00 MLOAD ADDMOD MULMOD PUSH1 0x40 MSTORE PUSH1 0x40 PUSH2 0x31A0 PUSH1 0x60 PUSH0 PUSH1 0x7 GAS STATICCALL AND PUSH1 0x40 PUSH2 0x3160 PUSH1 0x80 DUP2 PUSH1 0x6 GAS STATICCALL DUP2 AND SWAP1 POP PUSH2 0x400 MLOAD PUSH0 MSTORE PUSH2 0x420 MLOAD PUSH1 0x20 MSTORE PUSH2 0x27E0 MLOAD PUSH1 0x40 MSTORE PUSH1 0x40 PUSH2 0x31A0 PUSH1 0x60 PUSH0 PUSH1 0x7 GAS STATICCALL AND PUSH1 0x40 PUSH2 0x3160 PUSH1 0x80 DUP2 PUSH1 0x6 GAS STATICCALL DUP2 AND SWAP1 POP PUSH2 0x440 MLOAD PUSH0 MSTORE PUSH2 0x460 MLOAD PUSH1 0x20 MSTORE PUSH2 0x2800 MLOAD PUSH1 0x40 MSTORE PUSH1 0x40 PUSH2 0x31A0 PUSH1 0x60 PUSH0 PUSH1 0x7 GAS STATICCALL AND PUSH1 0x40 PUSH2 0x3160 PUSH1 0x80 DUP2 PUSH1 0x6 GAS STATICCALL DUP2 AND SWAP1 POP PUSH2 0x480 MLOAD PUSH0 MSTORE PUSH2 0x4A0 MLOAD PUSH1 0x20 MSTORE PUSH2 0x2820 MLOAD PUSH1 0x40 MSTORE PUSH1 0x40 PUSH2 0x31A0 PUSH1 0x60 PUSH0 PUSH1 0x7 GAS STATICCALL AND PUSH1 0x40 PUSH2 0x3160 PUSH1 0x80 DUP2 PUSH1 0x6 GAS STATICCALL DUP2 AND SWAP1 POP PUSH2 0x4C0 MLOAD PUSH0 MSTORE PUSH2 0x4E0 MLOAD PUSH1 0x20 MSTORE PUSH2 0x2840 MLOAD PUSH1 0x40 MSTORE PUSH1 0x40 PUSH2 0x31A0 PUSH1 0x60 PUSH0 PUSH1 0x7 GAS STATICCALL AND PUSH1 0x40 PUSH2 0x3160 PUSH1 0x80 DUP2 PUSH1 0x6 GAS STATICCALL DUP2 AND SWAP1 POP PUSH2 0x500 MLOAD PUSH0 MSTORE PUSH2 0x520 MLOAD PUSH1 0x20 MSTORE PUSH2 0x2860 MLOAD PUSH1 0x40 MSTORE PUSH1 0x40 PUSH2 0x31A0 PUSH1 0x60 PUSH0 PUSH1 0x7 GAS STATICCALL AND PUSH1 0x40 PUSH2 0x3160 PUSH1 0x80 DUP2 PUSH1 0x6 GAS STATICCALL DUP2 AND SWAP1 POP PUSH2 0x540 MLOAD PUSH0 MSTORE PUSH2 0x560 MLOAD PUSH1 0x20 MSTORE PUSH2 0x2880 MLOAD PUSH1 0x40 MSTORE PUSH1 0x40 PUSH2 0x31A0 PUSH1 0x60 PUSH0 PUSH1 0x7 GAS STATICCALL AND PUSH1 0x40 PUSH2 0x3160 PUSH1 0x80 DUP2 PUSH1 0x6 GAS STATICCALL DUP2 AND SWAP1 POP PUSH2 0x580 MLOAD PUSH0 MSTORE PUSH2 0x5A0 MLOAD PUSH1 0x20 MSTORE PUSH2 0x28A0 MLOAD PUSH1 0x40 MSTORE PUSH1 0x40 PUSH2 0x31A0 PUSH1 0x60 PUSH0 PUSH1 0x7 GAS STATICCALL AND PUSH1 0x40 PUSH2 0x3160 PUSH1 0x80 DUP2 PUSH1 0x6 GAS STATICCALL DUP2 AND SWAP1 POP PUSH2 0x5C0 MLOAD PUSH0 MSTORE PUSH2 0x5E0 MLOAD PUSH1 0x20 MSTORE PUSH2 0x28C0 MLOAD PUSH1 0x40 MSTORE PUSH1 0x40 PUSH2 0x31A0 PUSH1 0x60 PUSH0 PUSH1 0x7 GAS STATICCALL AND PUSH1 0x40 PUSH2 0x3160 PUSH1 0x80 DUP2 PUSH1 0x6 GAS STATICCALL DUP2 AND SWAP1 POP PUSH2 0x600 MLOAD PUSH0 MSTORE PUSH2 0x620 MLOAD PUSH1 0x20 MSTORE PUSH2 0x28E0 MLOAD PUSH1 0x40 MSTORE PUSH1 0x40 PUSH2 0x31A0 PUSH1 0x60 PUSH0 PUSH1 0x7 GAS STATICCALL AND PUSH1 0x40 PUSH2 0x3160 PUSH1 0x80 DUP2 PUSH1 0x6 GAS STATICCALL DUP2 AND SWAP1 POP PUSH2 0x640 MLOAD PUSH0 MSTORE PUSH2 0x660 MLOAD PUSH1 0x20 MSTORE PUSH2 0x2900 MLOAD PUSH1 0x40 MSTORE PUSH1 0x40 PUSH2 0x31A0 PUSH1 0x60 PUSH0 PUSH1 0x7 GAS STATICCALL AND PUSH1 0x40 PUSH2 0x3160 PUSH1 0x80 DUP2 PUSH1 0x6 GAS STATICCALL DUP2 AND SWAP1 POP PUSH2 0x680 MLOAD PUSH0 MSTORE PUSH2 0x6A0 MLOAD PUSH1 0x20 MSTORE PUSH2 0x2920 MLOAD PUSH1 0x40 MSTORE PUSH1 0x40 PUSH2 0x31A0 PUSH1 0x60 PUSH0 PUSH1 0x7 GAS STATICCALL AND PUSH1 0x40 PUSH2 0x3160 PUSH1 0x80 DUP2 PUSH1 0x6 GAS STATICCALL DUP2 AND SWAP1 POP PUSH2 0x6C0 MLOAD PUSH0 MSTORE PUSH2 0x6E0 MLOAD PUSH1 0x20 MSTORE PUSH2 0x2940 MLOAD PUSH1 0x40 MSTORE PUSH1 0x40 PUSH2 0x31A0 PUSH1 0x60 PUSH0 PUSH1 0x7 GAS STATICCALL AND PUSH1 0x40 PUSH2 0x3160 PUSH1 0x80 DUP2 PUSH1 0x6 GAS STATICCALL DUP2 AND SWAP1 POP PUSH2 0x700 MLOAD PUSH0 MSTORE PUSH2 0x720 MLOAD PUSH1 0x20 MSTORE PUSH2 0x2960 MLOAD PUSH1 0x40 MSTORE PUSH1 0x40 PUSH2 0x31A0 PUSH1 0x60 PUSH0 PUSH1 0x7 GAS STATICCALL AND PUSH1 0x40 PUSH2 0x3160 PUSH1 0x80 DUP2 PUSH1 0x6 GAS STATICCALL DUP2 AND SWAP1 POP PUSH2 0x740 MLOAD PUSH0 MSTORE PUSH2 0x760 MLOAD PUSH1 0x20 MSTORE PUSH2 0x2980 MLOAD PUSH1 0x40 MSTORE PUSH1 0x40 PUSH2 0x31A0 PUSH1 0x60 PUSH0 PUSH1 0x7 GAS STATICCALL AND PUSH1 0x40 PUSH2 0x3160 PUSH1 0x80 DUP2 PUSH1 0x6 GAS STATICCALL DUP2 AND SWAP1 POP PUSH2 0x780 MLOAD PUSH0 MSTORE PUSH2 0x7A0 MLOAD PUSH1 0x20 MSTORE DUP2 PUSH2 0x29A0 MLOAD DUP4 PUSH1 0x1 PUSH2 0x2B00 MLOAD ADDMOD MULMOD PUSH1 0x40 MSTORE PUSH1 0x40 PUSH2 0x31A0 PUSH1 0x60 PUSH0 PUSH1 0x7 GAS STATICCALL AND PUSH1 0x40 PUSH2 0x3160 PUSH1 0x80 DUP2 PUSH1 0x6 GAS STATICCALL DUP2 AND SWAP1 POP PUSH2 0x7C0 MLOAD PUSH0 MSTORE PUSH2 0x7E0 MLOAD PUSH1 0x20 MSTORE DUP2 PUSH2 0x29C0 MLOAD DUP4 PUSH1 0x1 PUSH2 0x2B00 MLOAD ADDMOD MULMOD PUSH1 0x40 MSTORE PUSH1 0x40 PUSH2 0x31A0 PUSH1 0x60 PUSH0 PUSH1 0x7 GAS STATICCALL AND PUSH1 0x40 PUSH2 0x3160 PUSH1 0x80 DUP2 PUSH1 0x6 GAS STATICCALL DUP2 AND SWAP1 POP PUSH2 0x800 MLOAD PUSH0 MSTORE PUSH2 0x820 MLOAD PUSH1 0x20 MSTORE DUP2 PUSH2 0x29E0 MLOAD DUP4 PUSH1 0x1 PUSH2 0x2B00 MLOAD ADDMOD MULMOD PUSH1 0x40 MSTORE PUSH1 0x40 PUSH2 0x31A0 PUSH1 0x60 PUSH0 PUSH1 0x7 GAS STATICCALL AND PUSH1 0x40 PUSH2 0x3160 PUSH1 0x80 DUP2 PUSH1 0x6 GAS STATICCALL DUP2 AND SWAP1 POP PUSH2 0x840 MLOAD PUSH0 MSTORE PUSH2 0x860 MLOAD PUSH1 0x20 MSTORE DUP2 PUSH2 0x2A00 MLOAD DUP4 PUSH1 0x1 PUSH2 0x2B00 MLOAD ADDMOD MULMOD PUSH1 0x40 MSTORE PUSH1 0x40 PUSH2 0x31A0 PUSH1 0x60 PUSH0 PUSH1 0x7 GAS STATICCALL AND PUSH1 0x40 PUSH2 0x3160 PUSH1 0x80 DUP2 PUSH1 0x6 GAS STATICCALL DUP2 AND SWAP1 POP PUSH2 0x880 MLOAD PUSH0 MSTORE PUSH2 0x8A0 MLOAD PUSH1 0x20 MSTORE PUSH2 0x2A20 MLOAD PUSH1 0x40 MSTORE PUSH1 0x40 PUSH2 0x31A0 PUSH1 0x60 PUSH0 PUSH1 0x7 GAS STATICCALL AND PUSH1 0x40 PUSH2 0x3160 PUSH1 0x80 DUP2 PUSH1 0x6 GAS STATICCALL DUP2 AND SWAP1 POP PUSH2 0x8C0 MLOAD PUSH0 MSTORE PUSH2 0x8E0 MLOAD PUSH1 0x20 MSTORE PUSH2 0x2A40 MLOAD PUSH1 0x40 MSTORE PUSH1 0x40 PUSH2 0x31A0 PUSH1 0x60 PUSH0 PUSH1 0x7 GAS STATICCALL AND PUSH1 0x40 PUSH2 0x3160 PUSH1 0x80 DUP2 PUSH1 0x6 GAS STATICCALL DUP2 AND SWAP1 POP PUSH2 0x900 MLOAD PUSH0 MSTORE PUSH2 0x920 MLOAD PUSH1 0x20 MSTORE PUSH2 0x2A60 MLOAD PUSH1 0x40 MSTORE PUSH1 0x40 PUSH2 0x31A0 PUSH1 0x60 PUSH0 PUSH1 0x7 GAS STATICCALL AND PUSH1 0x40 PUSH2 0x3160 PUSH1 0x80 DUP2 PUSH1 0x6 GAS STATICCALL DUP2 AND SWAP1 POP PUSH2 0x940 MLOAD PUSH0 MSTORE PUSH2 0x960 MLOAD PUSH1 0x20 MSTORE PUSH2 0x2A80 MLOAD PUSH1 0x40 MSTORE PUSH1 0x40 PUSH2 0x31A0 PUSH1 0x60 PUSH0 PUSH1 0x7 GAS STATICCALL AND PUSH1 0x40 PUSH2 0x3160 PUSH1 0x80 DUP2 PUSH1 0x6 GAS STATICCALL DUP2 AND SWAP1 POP PUSH2 0x980 MLOAD PUSH0 MSTORE PUSH2 0x9A0 MLOAD PUSH1 0x20 MSTORE PUSH2 0x2AA0 MLOAD PUSH1 0x40 MSTORE PUSH1 0x40 PUSH2 0x31A0 PUSH1 0x60 PUSH0 PUSH1 0x7 GAS STATICCALL AND PUSH1 0x40 PUSH2 0x3160 PUSH1 0x80 DUP2 PUSH1 0x6 GAS STATICCALL DUP2 AND SWAP1 POP DUP2 DUP3 PUSH2 0x1600 MLOAD DUP5 PUSH2 0x2B00 MLOAD PUSH2 0x19E0 MLOAD MULMOD ADDMOD PUSH2 0x2700 MLOAD MULMOD DUP3 DUP4 DUP5 PUSH2 0x1620 MLOAD DUP7 PUSH2 0x2B00 MLOAD PUSH2 0x2000 MLOAD MULMOD ADDMOD PUSH2 0x2720 MLOAD MULMOD DUP3 ADDMOD SWAP1 POP DUP3 DUP4 DUP5 PUSH2 0x1640 MLOAD DUP7 PUSH2 0x2B00 MLOAD PUSH2 0x2020 MLOAD MULMOD ADDMOD PUSH2 0x2740 MLOAD MULMOD DUP3 ADDMOD SWAP1 POP DUP3 DUP4 DUP5 PUSH2 0x1660 MLOAD DUP7 PUSH2 0x2B00 MLOAD PUSH2 0x2040 MLOAD MULMOD ADDMOD PUSH2 0x2760 MLOAD MULMOD DUP3 ADDMOD SWAP1 POP DUP3 DUP4 DUP5 PUSH2 0x1680 MLOAD DUP7 PUSH2 0x2B00 MLOAD PUSH2 0x2060 MLOAD MULMOD ADDMOD PUSH2 0x2780 MLOAD MULMOD DUP3 ADDMOD SWAP1 POP DUP3 DUP4 DUP5 PUSH2 0x16A0 MLOAD DUP7 PUSH2 0x2B00 MLOAD PUSH2 0x2080 MLOAD MULMOD ADDMOD PUSH2 0x27A0 MLOAD MULMOD DUP3 ADDMOD SWAP1 POP DUP3 DUP4 DUP5 PUSH2 0x16C0 MLOAD DUP7 PUSH2 0x2B00 MLOAD PUSH2 0x20A0 MLOAD MULMOD ADDMOD PUSH2 0x27C0 MLOAD MULMOD DUP3 ADDMOD SWAP1 POP DUP3 DUP4 PUSH2 0x16E0 MLOAD PUSH2 0x27E0 MLOAD MULMOD DUP3 ADDMOD SWAP1 POP DUP3 DUP4 PUSH2 0x1700 MLOAD PUSH2 0x2800 MLOAD MULMOD DUP3 ADDMOD SWAP1 POP DUP3 DUP4 PUSH2 0x1720 MLOAD PUSH2 0x2820 MLOAD MULMOD DUP3 ADDMOD SWAP1 POP DUP3 DUP4 PUSH2 0x1740 MLOAD PUSH2 0x2840 MLOAD MULMOD DUP3 ADDMOD SWAP1 POP DUP3 DUP4 PUSH2 0x1760 MLOAD PUSH2 0x2860 MLOAD MULMOD DUP3 ADDMOD SWAP1 POP DUP3 DUP4 PUSH2 0x1780 MLOAD PUSH2 0x2880 MLOAD MULMOD DUP3 ADDMOD SWAP1 POP DUP3 DUP4 PUSH2 0x17A0 MLOAD PUSH2 0x28A0 MLOAD MULMOD DUP3 ADDMOD SWAP1 POP DUP3 DUP4 PUSH2 0x17C0 MLOAD PUSH2 0x28C0 MLOAD MULMOD DUP3 ADDMOD SWAP1 POP DUP3 DUP4 PUSH2 0x17E0 MLOAD PUSH2 0x28E0 MLOAD MULMOD DUP3 ADDMOD SWAP1 POP DUP3 DUP4 PUSH2 0x1800 MLOAD PUSH2 0x2900 MLOAD MULMOD DUP3 ADDMOD SWAP1 POP DUP3 DUP4 PUSH2 0x1960 MLOAD PUSH2 0x2920 MLOAD MULMOD DUP3 ADDMOD SWAP1 POP DUP3 DUP4 PUSH2 0x1980 MLOAD PUSH2 0x2940 MLOAD MULMOD DUP3 ADDMOD SWAP1 POP DUP3 DUP4 PUSH2 0x19A0 MLOAD PUSH2 0x2960 MLOAD MULMOD DUP3 ADDMOD SWAP1 POP DUP3 DUP4 PUSH2 0x19C0 MLOAD PUSH2 0x2980 MLOAD MULMOD DUP3 ADDMOD SWAP1 POP DUP3 DUP4 DUP5 PUSH2 0x1840 MLOAD DUP7 PUSH2 0x2B00 MLOAD PUSH2 0x20C0 MLOAD MULMOD ADDMOD PUSH2 0x29A0 MLOAD MULMOD DUP3 ADDMOD SWAP1 POP DUP3 DUP4 DUP5 PUSH2 0x1860 MLOAD DUP7 PUSH2 0x2B00 MLOAD PUSH2 0x20E0 MLOAD MULMOD ADDMOD PUSH2 0x29C0 MLOAD MULMOD DUP3 ADDMOD SWAP1 POP DUP3 DUP4 DUP5 PUSH2 0x1880 MLOAD DUP7 PUSH2 0x2B00 MLOAD PUSH2 0x2100 MLOAD MULMOD ADDMOD PUSH2 0x29E0 MLOAD MULMOD DUP3 ADDMOD SWAP1 POP DUP3 DUP4 DUP5 PUSH2 0x18A0 MLOAD DUP7 PUSH2 0x2B00 MLOAD PUSH2 0x2120 MLOAD MULMOD ADDMOD PUSH2 0x2A00 MLOAD MULMOD DUP3 ADDMOD SWAP1 POP DUP3 DUP4 PUSH2 0x18C0 MLOAD PUSH2 0x2A20 MLOAD MULMOD DUP3 ADDMOD SWAP1 POP DUP3 DUP4 PUSH2 0x18E0 MLOAD PUSH2 0x2A40 MLOAD MULMOD DUP3 ADDMOD SWAP1 POP DUP3 DUP4 PUSH2 0x1900 MLOAD PUSH2 0x2A60 MLOAD MULMOD DUP3 ADDMOD SWAP1 POP DUP3 DUP4 PUSH2 0x1920 MLOAD PUSH2 0x2A80 MLOAD MULMOD DUP3 ADDMOD SWAP1 POP DUP3 DUP4 PUSH2 0x1940 MLOAD PUSH2 0x2AA0 MLOAD MULMOD DUP3 ADDMOD SWAP1 POP DUP3 PUSH2 0x3660 MLOAD DUP3 ADDMOD SWAP1 POP PUSH1 0x1 PUSH0 MSTORE PUSH1 0x2 PUSH1 0x20 MSTORE DUP1 DUP4 SUB PUSH1 0x40 MSTORE POP PUSH1 0x40 PUSH2 0x31A0 PUSH1 0x60 PUSH0 PUSH1 0x7 GAS STATICCALL AND PUSH1 0x40 PUSH2 0x3160 PUSH1 0x80 DUP2 PUSH1 0x6 GAS STATICCALL AND DUP1 PUSH2 0x27C1 JUMPI PUSH32 0x4E71976300000000000000000000000000000000000000000000000000000000 PUSH0 MSTORE PUSH1 0x4 PUSH0 REVERT JUMPDEST PUSH2 0x2B00 MLOAD PUSH2 0x26C0 MLOAD PUSH2 0x2300 MLOAD PUSH2 0x2320 MLOAD DUP7 DUP3 DUP4 MULMOD DUP8 PUSH1 0x3 DUP10 DUP4 DUP7 MULMOD ADDMOD DUP9 DUP4 DUP5 MULMOD EQ PUSH2 0x27F5 JUMPI PUSH4 0x28F6B595 PUSH1 0xE2 SHL PUSH0 MSTORE PUSH1 0x4 PUSH0 REVERT JUMPDEST POP DUP2 PUSH0 MSTORE DUP1 PUSH1 0x20 MSTORE POP POP DUP1 PUSH1 0x40 MSTORE PUSH1 0x40 PUSH2 0x31A0 PUSH1 0x60 PUSH0 PUSH1 0x7 GAS STATICCALL SWAP3 POP PUSH1 0x40 PUSH2 0x3160 PUSH1 0x80 PUSH2 0x3160 PUSH1 0x6 GAS STATICCALL DUP4 AND SWAP3 POP PUSH2 0x2340 MLOAD PUSH2 0x2360 MLOAD DUP7 DUP3 DUP4 MULMOD DUP8 PUSH1 0x3 DUP10 DUP4 DUP7 MULMOD ADDMOD DUP9 DUP4 DUP5 MULMOD EQ PUSH2 0x284F JUMPI PUSH4 0x28F6B595 PUSH1 0xE2 SHL PUSH0 MSTORE PUSH1 0x4 PUSH0 REVERT JUMPDEST POP DUP2 PUSH0 MSTORE DUP1 PUSH1 0x20 MSTORE POP POP DUP4 PUSH2 0x3C0 MLOAD DUP6 DUP4 DUP6 MULMOD MULMOD PUSH1 0x40 MSTORE POP PUSH1 0x40 PUSH2 0x31A0 PUSH1 0x60 PUSH0 PUSH1 0x7 GAS STATICCALL DUP3 AND SWAP2 POP PUSH1 0x40 PUSH2 0x3220 PUSH1 0x80 PUSH2 0x3160 PUSH1 0x6 GAS STATICCALL DUP3 AND SWAP2 POP PUSH2 0x2300 MLOAD PUSH0 MSTORE PUSH2 0x2320 MLOAD PUSH1 0x20 MSTORE PUSH2 0x2340 MLOAD PUSH1 0x40 MSTORE PUSH2 0x2360 MLOAD PUSH1 0x60 MSTORE DUP1 PUSH1 0x80 MSTORE PUSH1 0x40 DUP1 PUSH1 0x60 PUSH1 0x40 PUSH1 0x7 GAS STATICCALL DUP3 AND SWAP2 POP PUSH1 0x40 PUSH2 0x31E0 PUSH1 0x80 PUSH0 PUSH1 0x6 GAS STATICCALL DUP3 AND SWAP2 POP PUSH2 0x3200 MLOAD DUP5 SUB PUSH2 0x3200 MSTORE PUSH2 0x9C0 MLOAD ISZERO PUSH2 0x29A4 JUMPI PUSH2 0x3400 MLOAD PUSH2 0x3420 MLOAD DUP6 DUP3 DUP4 MULMOD DUP7 PUSH1 0x3 DUP9 DUP4 DUP7 MULMOD ADDMOD DUP8 DUP4 DUP5 MULMOD EQ PUSH2 0x2906 JUMPI PUSH4 0x28F6B595 PUSH1 0xE2 SHL PUSH0 MSTORE PUSH1 0x4 PUSH0 REVERT JUMPDEST POP PUSH0 SWAP2 SWAP1 SWAP2 MSTORE PUSH1 0x20 MSTORE DUP3 DUP2 DUP1 MULMOD PUSH1 0x40 MSTORE PUSH1 0x40 PUSH1 0x60 DUP1 PUSH0 PUSH1 0x7 GAS STATICCALL DUP3 AND SWAP2 POP PUSH2 0x3440 MLOAD PUSH2 0x3460 MLOAD DUP6 DUP3 DUP4 MULMOD DUP7 PUSH1 0x3 DUP9 DUP4 DUP7 MULMOD ADDMOD DUP8 DUP4 DUP5 MULMOD EQ PUSH2 0x2950 JUMPI PUSH4 0x28F6B595 PUSH1 0xE2 SHL PUSH0 MSTORE PUSH1 0x4 PUSH0 REVERT JUMPDEST POP PUSH0 SWAP2 DUP3 MSTORE PUSH1 0x20 MSTORE PUSH1 0x40 SWAP1 PUSH1 0x60 DUP2 PUSH1 0x7 GAS STATICCALL DUP3 AND SWAP2 POP PUSH2 0x3220 MLOAD PUSH1 0xA0 MSTORE PUSH2 0x3240 MLOAD PUSH1 0xC0 MSTORE PUSH1 0x40 PUSH2 0x3220 PUSH1 0x80 PUSH1 0x60 PUSH1 0x6 GAS STATICCALL DUP3 AND SWAP2 POP PUSH2 0x31E0 MLOAD PUSH1 0x40 MSTORE PUSH2 0x3200 MLOAD PUSH1 0x60 MSTORE PUSH1 0x40 PUSH2 0x31E0 PUSH1 0x80 PUSH0 PUSH1 0x6 GAS STATICCALL DUP3 AND SWAP2 POP JUMPDEST POP DUP1 PUSH2 0x29D2 JUMPI PUSH32 0x1882D8100000000000000000000000000000000000000000000000000000000 PUSH0 MSTORE PUSH1 0x4 PUSH0 REVERT JUMPDEST PUSH2 0x3220 MLOAD PUSH0 MSTORE PUSH2 0x3240 MLOAD PUSH1 0x20 MSTORE PUSH32 0x198E9393920D483A7260BFB731FB5D25F1AA493335A9E71297E485B7AEF312C2 PUSH1 0x40 MSTORE PUSH32 0x1800DEEF121F1E76426A00665E5C4479674322D4F75EDADD46DEBD5CD992F6ED PUSH1 0x60 MSTORE PUSH32 0x90689D0585FF075EC9E99AD690C3395BC4B313370B38EF355ACDADCD122975B PUSH1 0x80 MSTORE PUSH32 0x12C85EA5DB8C6DEB4AAB71808DCB408FE3D1E7690C43D37B4CE6CC0166FA7DAA PUSH1 0xA0 MSTORE PUSH2 0x31E0 MLOAD PUSH1 0xC0 MSTORE PUSH2 0x3200 MLOAD PUSH1 0xE0 MSTORE PUSH2 0xA00 MLOAD PUSH2 0x100 MSTORE PUSH2 0xA20 MLOAD PUSH2 0x120 MSTORE PUSH2 0xA40 MLOAD PUSH2 0x140 MSTORE PUSH2 0xA60 MLOAD PUSH2 0x160 MSTORE PUSH1 0x20 PUSH0 PUSH2 0x180 PUSH0 PUSH1 0x8 GAS STATICCALL SWAP1 POP PUSH0 MLOAD DUP2 AND PUSH2 0x2ADA JUMPI PUSH32 0xD71FD26300000000000000000000000000000000000000000000000000000000 PUSH0 MSTORE PUSH1 0x4 PUSH0 REVERT JUMPDEST POP POP POP PUSH1 0x1 PUSH0 MSTORE PUSH1 0x20 PUSH0 RETURN JUMPDEST PUSH0 DUP1 PUSH0 DUP1 PUSH1 0x40 DUP6 DUP8 SUB SLT ISZERO PUSH2 0x2AF9 JUMPI PUSH0 DUP1 REVERT JUMPDEST DUP5 CALLDATALOAD PUSH8 0xFFFFFFFFFFFFFFFF DUP1 DUP3 GT ISZERO PUSH2 0x2B10 JUMPI PUSH0 DUP1 REVERT JUMPDEST DUP2 DUP8 ADD SWAP2 POP DUP8 PUSH1 0x1F DUP4 ADD SLT PUSH2 0x2B23 JUMPI PUSH0 DUP1 REVERT JUMPDEST DUP2 CALLDATALOAD DUP2 DUP2 GT ISZERO PUSH2 0x2B31 JUMPI PUSH0 DUP1 REVERT JUMPDEST DUP9 PUSH1 0x20 DUP3 DUP6 ADD ADD GT ISZERO PUSH2 0x2B42 JUMPI PUSH0 DUP1 REVERT JUMPDEST PUSH1 0x20 SWAP3 DUP4 ADD SWAP7 POP SWAP5 POP SWAP1 DUP7 ADD CALLDATALOAD SWAP1 DUP1 DUP3 GT ISZERO PUSH2 0x2B5C JUMPI PUSH0 DUP1 REVERT JUMPDEST DUP2 DUP8 ADD SWAP2 POP DUP8 PUSH1 0x1F DUP4 ADD SLT PUSH2 0x2B6F JUMPI PUSH0 DUP1 REVERT JUMPDEST DUP2 CALLDATALOAD DUP2 DUP2 GT ISZERO PUSH2 0x2B7D JUMPI PUSH0 DUP1 REVERT JUMPDEST DUP9 PUSH1 0x20 DUP3 PUSH1 0x5 SHL DUP6 ADD ADD GT ISZERO PUSH2 0x2B91 JUMPI PUSH0 DUP1 REVERT JUMPDEST SWAP6 SWAP9 SWAP5 SWAP8 POP POP PUSH1 0x20 ADD SWAP5 POP POP POP JUMP INVALID LOG2 PUSH5 0x6970667358 0x22 SLT KECCAK256 LOG2 SLT SLT GAS SIGNEXTEND PUSH0 PUSH16 0x227BD3B77888DCF83E1B38B7A8E4E198 GASPRICE 0xA6 0x2E SLOAD SWAP4 SGT 0x4B CALLVALUE SIGNEXTEND PUSH5 0x736F6C6343 STOP ADDMOD AND STOP CALLER "
		},
		"gasEstimates": {
			"creation": {
				"codeDepositCost": "2244400",
				"executionCost": "5445",
				"totalCost": "2249845"
			},
			"external": {
				"getVerificationKeyHash()": "143",
				"verify(bytes,bytes32[])": "infinite"
			},
			"internal": {
				"loadVerificationKey(uint256,uint256)": "infinite"
			}
		},
		"methodIdentifiers": {
			"getVerificationKeyHash()": "937f6a10",
			"verify(bytes,bytes32[])": "ea50d0e4"
		}
	},
	"abi": [
		{
			"inputs": [],
			"name": "INVALID_VERIFICATION_KEY",
			"type": "error"
		},
		{
			"inputs": [],
			"name": "MOD_EXP_FAILURE",
			"type": "error"
		},
		{
			"inputs": [],
			"name": "OPENING_COMMITMENT_FAILED",
			"type": "error"
		},
		{
			"inputs": [],
			"name": "PAIRING_FAILED",
			"type": "error"
		},
		{
			"inputs": [],
			"name": "PAIRING_PREAMBLE_FAILED",
			"type": "error"
		},
		{
			"inputs": [],
			"name": "POINT_NOT_ON_CURVE",
			"type": "error"
		},
		{
			"inputs": [
				{
					"internalType": "uint256",
					"name": "expected",
					"type": "uint256"
				},
				{
					"internalType": "uint256",
					"name": "actual",
					"type": "uint256"
				}
			],
			"name": "PUBLIC_INPUT_COUNT_INVALID",
			"type": "error"
		},
		{
			"inputs": [],
			"name": "PUBLIC_INPUT_GE_P",
			"type": "error"
		},
		{
			"inputs": [],
			"name": "PUBLIC_INPUT_INVALID_BN128_G1_POINT",
			"type": "error"
		},
		{
			"inputs": [],
			"name": "getVerificationKeyHash",
			"outputs": [
				{
					"internalType": "bytes32",
					"name": "",
					"type": "bytes32"
				}
			],
			"stateMutability": "pure",
			"type": "function"
		},
		{
			"inputs": [
				{
					"internalType": "bytes",
					"name": "_proof",
					"type": "bytes"
				},
				{
					"internalType": "bytes32[]",
					"name": "_publicInputs",
					"type": "bytes32[]"
				}
			],
			"name": "verify",
			"outputs": [
				{
					"internalType": "bool",
					"name": "",
					"type": "bool"
				}
			],
			"stateMutability": "view",
			"type": "function"
		}
	]
}